{
  "contractName": "SimpleStorage",
  "abi": [
    {
      "constant": true,
      "inputs": [
        {
          "name": "",
          "type": "uint256"
        }
      ],
      "name": "addressarr",
      "outputs": [
        {
          "name": "",
          "type": "address"
        }
      ],
      "payable": false,
      "stateMutability": "view",
      "type": "function",
      "signature": "0x01eefc4e"
    },
    {
      "constant": true,
      "inputs": [
        {
          "name": "",
          "type": "uint256"
        }
      ],
      "name": "namearr",
      "outputs": [
        {
          "name": "",
          "type": "string"
        }
      ],
      "payable": false,
      "stateMutability": "view",
      "type": "function",
      "signature": "0x82f4c228"
    },
    {
      "constant": true,
      "inputs": [
        {
          "name": "a",
          "type": "address"
        }
      ],
      "name": "checkPublicKey",
      "outputs": [
        {
          "name": "",
          "type": "bool"
        }
      ],
      "payable": false,
      "stateMutability": "view",
      "type": "function",
      "signature": "0x6af92956"
    },
    {
      "constant": true,
      "inputs": [
        {
          "name": "a",
          "type": "address"
        }
      ],
      "name": "getPublicKey",
      "outputs": [
        {
          "name": "",
          "type": "string"
        }
      ],
      "payable": false,
      "stateMutability": "view",
      "type": "function",
      "signature": "0x857cdbb8"
    },
    {
      "constant": true,
      "inputs": [
        {
          "name": "link",
          "type": "string"
        }
      ],
      "name": "getDigitalSignature",
      "outputs": [
        {
          "name": "",
          "type": "string"
        },
        {
          "name": "",
          "type": "address"
        }
      ],
      "payable": false,
      "stateMutability": "view",
      "type": "function",
      "signature": "0x54e69f7f"
    },
    {
      "constant": false,
      "inputs": [
        {
          "name": "link",
          "type": "string"
        },
        {
          "name": "digitalSignature",
          "type": "string"
        },
        {
          "name": "to",
          "type": "address"
        },
        {
          "name": "a",
          "type": "address"
        }
      ],
      "name": "addData",
      "outputs": [],
      "payable": false,
      "stateMutability": "nonpayable",
      "type": "function",
      "signature": "0xb2b6e54b"
    },
    {
      "constant": true,
      "inputs": [
        {
          "name": "a",
          "type": "address"
        }
      ],
      "name": "getLinks",
      "outputs": [
        {
          "name": "arr",
          "type": "string[]"
        }
      ],
      "payable": false,
      "stateMutability": "view",
      "type": "function",
      "signature": "0x4b9d8624"
    },
    {
      "constant": false,
      "inputs": [
        {
          "name": "key",
          "type": "string"
        },
        {
          "name": "a",
          "type": "address"
        },
        {
          "name": "name",
          "type": "string"
        }
      ],
      "name": "addPublicKey",
      "outputs": [],
      "payable": false,
      "stateMutability": "nonpayable",
      "type": "function",
      "signature": "0x9a38c3ad"
    },
    {
      "constant": true,
      "inputs": [
        {
          "name": "add",
          "type": "address"
        }
      ],
      "name": "getName",
      "outputs": [
        {
          "name": "name",
          "type": "string"
        }
      ],
      "payable": false,
      "stateMutability": "view",
      "type": "function",
      "signature": "0x5fd4b08a"
    },
    {
      "constant": true,
      "inputs": [],
      "name": "getAllUsersName",
      "outputs": [
        {
          "name": "",
          "type": "string[]"
        }
      ],
      "payable": false,
      "stateMutability": "view",
      "type": "function",
      "signature": "0xe8f3837b"
    },
    {
      "constant": true,
      "inputs": [],
      "name": "getAllUsersAdd",
      "outputs": [
        {
          "name": "",
          "type": "address[]"
        }
      ],
      "payable": false,
      "stateMutability": "view",
      "type": "function",
      "signature": "0xec1a1e9b"
    }
  ],
  "bytecode": "0x608060405234801561001057600080fd5b50611447806100206000396000f3fe608060405234801561001057600080fd5b50600436106100c6576000357c01000000000000000000000000000000000000000000000000000000009004806382f4c2281161008e57806382f4c228146101bc578063857cdbb8146101ec5780639a38c3ad1461021c578063b2b6e54b14610238578063e8f3837b14610254578063ec1a1e9b14610272576100c6565b806301eefc4e146100cb5780634b9d8624146100fb57806354e69f7f1461012b5780635fd4b08a1461015c5780636af929561461018c575b600080fd5b6100e560048036036100e09190810190610f0a565b610290565b6040516100f2919061114a565b60405180910390f35b61011560048036036101109190810190610d8e565b6102cc565b6040516101229190611187565b60405180910390f35b61014560048036036101409190810190610db7565b6103f7565b604051610153929190611208565b60405180910390f35b61017660048036036101719190810190610d8e565b610503565b60405161018391906111e6565b60405180910390f35b6101a660048036036101a19190810190610d8e565b6105e7565b6040516101b391906111a9565b60405180910390f35b6101d660048036036101d19190810190610f0a565b61065a565b6040516101e391906111c4565b60405180910390f35b61020660048036036102019190810190610d8e565b610713565b60405161021391906111e6565b60405180910390f35b61023660048036036102319190810190610df8565b6107f7565b005b610252600480360361024d9190810190610e77565b610970565b005b61025c610a76565b6040516102699190611187565b60405180910390f35b61027a610b5f565b6040516102879190611165565b60405180910390f35b6001818154811061029d57fe5b906000526020600020016000915054906101000a900473ffffffffffffffffffffffffffffffffffffffff1681565b6060600360008373ffffffffffffffffffffffffffffffffffffffff1673ffffffffffffffffffffffffffffffffffffffff168152602001908152602001600020805480602002602001604051908101604052809291908181526020016000905b828210156103e9578382906000526020600020018054600181600116156101000203166002900480601f0160208091040260200160405190810160405280929190818152602001828054600181600116156101000203166002900480156103d55780601f106103aa576101008083540402835291602001916103d5565b820191906000526020600020905b8154815290600101906020018083116103b857829003601f168201915b50505050508152602001906001019061032d565b505050509050809050919050565b6060600060048360405161040b9190611133565b908152602001604051809103902060020160048460405161042c9190611133565b908152602001604051809103902060000160009054906101000a900473ffffffffffffffffffffffffffffffffffffffff16818054600181600116156101000203166002900480601f0160208091040260200160405190810160405280929190818152602001828054600181600116156101000203166002900480156104f35780601f106104c8576101008083540402835291602001916104f3565b820191906000526020600020905b8154815290600101906020018083116104d657829003601f168201915b5050505050915091509150915091565b6060600260008373ffffffffffffffffffffffffffffffffffffffff1673ffffffffffffffffffffffffffffffffffffffff1681526020019081526020016000206001018054600181600116156101000203166002900480601f0160208091040260200160405190810160405280929190818152602001828054600181600116156101000203166002900480156105db5780601f106105b0576101008083540402835291602001916105db565b820191906000526020600020905b8154815290600101906020018083116105be57829003601f168201915b50505050509050919050565b600080600260008473ffffffffffffffffffffffffffffffffffffffff1673ffffffffffffffffffffffffffffffffffffffff16815260200190815260200160002060000180546001816001161561010002031660029004905014156106505760009050610655565b600190505b919050565b6000818154811061066757fe5b906000526020600020016000915090508054600181600116156101000203166002900480601f01602080910402602001604051908101604052809291908181526020018280546001816001161561010002031660029004801561070b5780601f106106e05761010080835404028352916020019161070b565b820191906000526020600020905b8154815290600101906020018083116106ee57829003601f168201915b505050505081565b6060600260008373ffffffffffffffffffffffffffffffffffffffff1673ffffffffffffffffffffffffffffffffffffffff1681526020019081526020016000206000018054600181600116156101000203166002900480601f0160208091040260200160405190810160405280929190818152602001828054600181600116156101000203166002900480156107eb5780601f106107c0576101008083540402835291602001916107eb565b820191906000526020600020905b8154815290600101906020018083116107ce57829003601f168201915b50505050509050919050565b6000610802836105e7565b90506001151581151514156108165761096a565b83600260008573ffffffffffffffffffffffffffffffffffffffff1673ffffffffffffffffffffffffffffffffffffffff168152602001908152602001600020600001908051906020019061086c929190610c6d565b5081600260008573ffffffffffffffffffffffffffffffffffffffff1673ffffffffffffffffffffffffffffffffffffffff16815260200190815260200160002060010190805190602001906108c3929190610c6d565b506000829080600181540180825580915050906001820390600052602060002001600090919290919091509080519060200190610901929190610c6d565b505060018390806001815401808255809150509060018203906000526020600020016000909192909190916101000a81548173ffffffffffffffffffffffffffffffffffffffff021916908373ffffffffffffffffffffffffffffffffffffffff160217905550505b50505050565b806004856040516109819190611133565b908152602001604051809103902060000160006101000a81548173ffffffffffffffffffffffffffffffffffffffff021916908373ffffffffffffffffffffffffffffffffffffffff160217905550816004856040516109e19190611133565b908152602001604051809103902060010160006101000a81548173ffffffffffffffffffffffffffffffffffffffff021916908373ffffffffffffffffffffffffffffffffffffffff16021790555082600485604051610a419190611133565b90815260200160405180910390206002019080519060200190610a65929190610c6d565b50610a708285610bed565b50505050565b60606000805480602002602001604051908101604052809291908181526020016000905b82821015610b56578382906000526020600020018054600181600116156101000203166002900480601f016020809104026020016040519081016040528092919081815260200182805460018160011615610100020316600290048015610b425780601f10610b1757610100808354040283529160200191610b42565b820191906000526020600020905b815481529060010190602001808311610b2557829003601f168201915b505050505081526020019060010190610a9a565b50505050905090565b60606001805480602002602001604051908101604052809291908181526020018280548015610be357602002820191906000526020600020905b8160009054906101000a900473ffffffffffffffffffffffffffffffffffffffff1673ffffffffffffffffffffffffffffffffffffffff1681526020019060010190808311610b99575b5050505050905090565b600360008373ffffffffffffffffffffffffffffffffffffffff1673ffffffffffffffffffffffffffffffffffffffff168152602001908152602001600020819080600181540180825580915050906001820390600052602060002001600090919290919091509080519060200190610c67929190610c6d565b50505050565b828054600181600116156101000203166002900490600052602060002090601f016020900481019282601f10610cae57805160ff1916838001178555610cdc565b82800160010185558215610cdc579182015b82811115610cdb578251825591602001919060010190610cc0565b5b509050610ce99190610ced565b5090565b610d0f91905b80821115610d0b576000816000905550600101610cf3565b5090565b90565b6000610d1e823561137e565b905092915050565b600082601f830112610d3757600080fd5b8135610d4a610d4582611265565b611238565b91508082526020830160208301858383011115610d6657600080fd5b610d718382846113ba565b50505092915050565b6000610d8682356113b0565b905092915050565b600060208284031215610da057600080fd5b6000610dae84828501610d12565b91505092915050565b600060208284031215610dc957600080fd5b600082013567ffffffffffffffff811115610de357600080fd5b610def84828501610d26565b91505092915050565b600080600060608486031215610e0d57600080fd5b600084013567ffffffffffffffff811115610e2757600080fd5b610e3386828701610d26565b9350506020610e4486828701610d12565b925050604084013567ffffffffffffffff811115610e6157600080fd5b610e6d86828701610d26565b9150509250925092565b60008060008060808587031215610e8d57600080fd5b600085013567ffffffffffffffff811115610ea757600080fd5b610eb387828801610d26565b945050602085013567ffffffffffffffff811115610ed057600080fd5b610edc87828801610d26565b9350506040610eed87828801610d12565b9250506060610efe87828801610d12565b91505092959194509250565b600060208284031215610f1c57600080fd5b6000610f2a84828501610d7a565b91505092915050565b6000610f3f8383610f5f565b60208301905092915050565b6000610f5783836110c1565b905092915050565b610f6881611340565b82525050565b610f7781611340565b82525050565b6000610f88826112ab565b610f9281856112f1565b9350610f9d83611291565b60005b82811015610fcb57610fb3868351610f33565b9550610fbe826112d7565b9150600181019050610fa0565b50849250505092915050565b6000610fe2826112b6565b610fec8185611302565b935083602082028501610ffe8561129e565b60005b84811015611037578383038852611019838351610f4b565b9250611024826112e4565b9150602088019750600181019050611001565b508196508694505050505092915050565b61105181611352565b82525050565b6000611062826112cc565b61106c8185611324565b935061107c8185602086016113c9565b611085816113fc565b840191505092915050565b600061109b826112cc565b6110a58185611335565b93506110b58185602086016113c9565b80840191505092915050565b60006110cc826112c1565b6110d68185611313565b93506110e68185602086016113c9565b6110ef816113fc565b840191505092915050565b6000611105826112c1565b61110f8185611324565b935061111f8185602086016113c9565b611128816113fc565b840191505092915050565b600061113f8284611090565b915081905092915050565b600060208201905061115f6000830184610f6e565b92915050565b6000602082019050818103600083015261117f8184610f7d565b905092915050565b600060208201905081810360008301526111a18184610fd7565b905092915050565b60006020820190506111be6000830184611048565b92915050565b600060208201905081810360008301526111de81846110fa565b905092915050565b600060208201905081810360008301526112008184611057565b905092915050565b600060408201905081810360008301526112228185611057565b90506112316020830184610f6e565b9392505050565b6000604051905081810181811067ffffffffffffffff8211171561125b57600080fd5b8060405250919050565b600067ffffffffffffffff82111561127c57600080fd5b601f19601f8301169050602081019050919050565b6000602082019050919050565b6000602082019050919050565b600081519050919050565b600081519050919050565b600081519050919050565b600081519050919050565b6000602082019050919050565b6000602082019050919050565b600082825260208201905092915050565b600082825260208201905092915050565b600082825260208201905092915050565b600082825260208201905092915050565b600081905092915050565b600061134b8261135e565b9050919050565b60008115159050919050565b600073ffffffffffffffffffffffffffffffffffffffff82169050919050565b600061138982611390565b9050919050565b600073ffffffffffffffffffffffffffffffffffffffff82169050919050565b6000819050919050565b82818337600083830152505050565b60005b838110156113e75780820151818401526020810190506113cc565b838111156113f6576000848401525b50505050565b6000601f19601f830116905091905056fea265627a7a723058206beee1e8007f8d12673cd1cf6d2de90c797927555769c63312486452451309356c6578706572696d656e74616cf50037",
  "source": "pragma solidity ^0.5.6;\npragma experimental ABIEncoderV2;\n\ncontract SimpleStorage {\n  struct Data{\n    address from;\n    address to;\n    string digitalSignature;\n  }\n  struct identity{\n    string pubkey;\n    string name;\n  }\n  string[] public namearr;\n\n  address[] public addressarr;\n  mapping(address => identity) publicKey;\n  function checkPublicKey(address a) public view returns (bool) {\n\n    if(bytes(publicKey[a].pubkey).length == 0)\n    {\n      return false;\n    }\n    else\n    {\n      return true;\n    }\n  }\n  function getPublicKey(address a) public view returns (string memory){\n    return publicKey[a].pubkey;\n  }\n \n  function getDigitalSignature(string memory link) public view returns (string memory,address)\n  {\n     return (data[link].digitalSignature,data[link].from);\n  }\n\n  mapping(address => string[]) addressLink;\n  function addAddressLink(address add,string memory link) private {\n        addressLink[add].push(link);\n  }\n  mapping(string=> Data) data;\n  function addData(string memory link,string memory digitalSignature,address to,address a) public\n  {\n    data[link].from = a;\n    data[link].to = to;\n    data[link].digitalSignature = digitalSignature;\n    addAddressLink(to,link);\n  }\n  function getLinks(address a) public view returns (string[] memory arr)\n  {\n    arr = addressLink[a];\n    return arr;\n  }\n  function addPublicKey(string memory key,address a,string memory name) public {\n    bool check = checkPublicKey(a);\n    if(check == true)\n    {\n\n    }\n    else\n    {\n      publicKey[a].pubkey = key;\n      publicKey[a].name = name;\n      namearr.push(name);\n      addressarr.push(a);\n\n    }\n  }\n  function getName(address add) public view returns(string memory name){\n    return publicKey[add].name;\n  }\n  function getAllUsersName() public view returns(string[] memory)\n  {\n    return namearr;\n\n  }\n  function getAllUsersAdd() public view returns(address[] memory)\n  {\n    return addressarr;\n  }\n  \n}\n",
  "sourcePath": "/Users/shivansh/Desktop/filepost-cert/contracts/SimpleStorage.sol",
  "compiler": {
    "name": "solc",
    "version": "0.5.7+commit.6da8b019.Emscripten.clang"
  },
  "schemaVersion": "3.0.0-beta.2",
  "updatedAt": "2019-05-28T10:59:26.329Z",
  "devdoc": {
    "methods": {}
  },
  "userdoc": {
    "methods": {}
  }
}