{
  "contractName": "SimpleStorage",
  "abi": [
    {
      "constant": true,
      "inputs": [
        {
          "name": "a",
          "type": "address"
        }
      ],
      "name": "checkPublicKey",
      "outputs": [
        {
          "name": "",
          "type": "uint256"
        }
      ],
      "payable": false,
      "stateMutability": "view",
      "type": "function",
      "signature": "0x6af92956"
    },
    {
      "constant": true,
      "inputs": [
        {
          "name": "a",
          "type": "address"
        }
      ],
      "name": "getPublicKey",
      "outputs": [
        {
          "name": "",
          "type": "string"
        }
      ],
      "payable": false,
      "stateMutability": "view",
      "type": "function",
      "signature": "0x857cdbb8"
    },
    {
      "constant": true,
      "inputs": [
        {
          "name": "link",
          "type": "string"
        }
      ],
      "name": "getDigitalSignature",
      "outputs": [
        {
          "name": "",
          "type": "string"
        }
      ],
      "payable": false,
      "stateMutability": "view",
      "type": "function",
      "signature": "0x54e69f7f"
    },
    {
      "constant": false,
      "inputs": [
        {
          "name": "link",
          "type": "string"
        },
        {
          "name": "digitalSignature",
          "type": "string"
        },
        {
          "name": "to",
          "type": "address"
        },
        {
          "name": "a",
          "type": "address"
        }
      ],
      "name": "addData",
      "outputs": [],
      "payable": false,
      "stateMutability": "nonpayable",
      "type": "function",
      "signature": "0xb2b6e54b"
    },
    {
      "constant": true,
      "inputs": [
        {
          "name": "a",
          "type": "address"
        }
      ],
      "name": "getLinks",
      "outputs": [
        {
          "name": "",
          "type": "string[]"
        }
      ],
      "payable": false,
      "stateMutability": "view",
      "type": "function",
      "signature": "0x4b9d8624"
    },
    {
      "constant": false,
      "inputs": [
        {
          "name": "key",
          "type": "string"
        },
        {
          "name": "a",
          "type": "address"
        }
      ],
      "name": "addPublicKey",
      "outputs": [],
      "payable": false,
      "stateMutability": "nonpayable",
      "type": "function",
      "signature": "0xce68f121"
    }
  ],
  "bytecode": "0x608060405234801561001057600080fd5b50610d30806100206000396000f3fe608060405260043610610078576000357c0100000000000000000000000000000000000000000000000000000000900463ffffffff1680634b9d86241461007d57806354e69f7f146100ba5780636af92956146100f7578063857cdbb814610134578063b2b6e54b14610171578063ce68f1211461019a575b600080fd5b34801561008957600080fd5b506100a4600480360361009f919081019061093a565b6101c3565b6040516100b19190610b74565b60405180910390f35b3480156100c657600080fd5b506100e160048036036100dc9190810190610963565b6102eb565b6040516100ee9190610b96565b60405180910390f35b34801561010357600080fd5b5061011e6004803603610119919081019061093a565b6103fb565b60405161012b9190610bb8565b60405180910390f35b34801561014057600080fd5b5061015b6004803603610156919081019061093a565b61046a565b6040516101689190610b96565b60405180910390f35b34801561017d57600080fd5b50610198600480360361019391908101906109f8565b61054a565b005b3480156101a657600080fd5b506101c160048036036101bc91908101906109a4565b610737565b005b6060600160008373ffffffffffffffffffffffffffffffffffffffff1673ffffffffffffffffffffffffffffffffffffffff168152602001908152602001600020805480602002602001604051908101604052809291908181526020016000905b828210156102e0578382906000526020600020018054600181600116156101000203166002900480601f0160208091040260200160405190810160405280929190818152602001828054600181600116156101000203166002900480156102cc5780601f106102a1576101008083540402835291602001916102cc565b820191906000526020600020905b8154815290600101906020018083116102af57829003601f168201915b505050505081526020019060010190610224565b505050509050919050565b60606002826040518082805190602001908083835b6020831015156103255780518252602082019150602081019050602083039250610300565b6001836020036101000a03801982511681845116808217855250505050505090500191505090815260200160405180910390206002018054600181600116156101000203166002900480601f0160208091040260200160405190810160405280929190818152602001828054600181600116156101000203166002900480156103ef5780601f106103c4576101008083540402835291602001916103ef565b820191906000526020600020905b8154815290600101906020018083116103d257829003601f168201915b50505050509050919050565b6000806000808473ffffffffffffffffffffffffffffffffffffffff1673ffffffffffffffffffffffffffffffffffffffff16815260200190815260200160002080546001816001161561010002031660029004905014156104605760009050610465565b600190505b919050565b60606000808373ffffffffffffffffffffffffffffffffffffffff1673ffffffffffffffffffffffffffffffffffffffff1681526020019081526020016000208054600181600116156101000203166002900480601f01602080910402602001604051908101604052809291908181526020018280546001816001161561010002031660029004801561053e5780601f106105135761010080835404028352916020019161053e565b820191906000526020600020905b81548152906001019060200180831161052157829003601f168201915b50505050509050919050565b806002856040518082805190602001908083835b602083101515610583578051825260208201915060208101905060208303925061055e565b6001836020036101000a038019825116818451168082178552505050505050905001915050908152602001604051809103902060000160006101000a81548173ffffffffffffffffffffffffffffffffffffffff021916908373ffffffffffffffffffffffffffffffffffffffff160217905550816002856040518082805190602001908083835b602083101515610630578051825260208201915060208101905060208303925061060b565b6001836020036101000a038019825116818451168082178552505050505050905001915050908152602001604051809103902060010160006101000a81548173ffffffffffffffffffffffffffffffffffffffff021916908373ffffffffffffffffffffffffffffffffffffffff160217905550826002856040518082805190602001908083835b6020831015156106dd57805182526020820191506020810190506020830392506106b8565b6001836020036101000a0380198251168184511680821785525050505050509050019150509081526020016040518091039020600201908051906020019061072692919061082b565b5061073182856107ab565b50505050565b6000610742826103fb565b90506001811415610752576107a6565b826000808473ffffffffffffffffffffffffffffffffffffffff1673ffffffffffffffffffffffffffffffffffffffff16815260200190815260200160002090805190602001906107a492919061082b565b505b505050565b600160008373ffffffffffffffffffffffffffffffffffffffff1673ffffffffffffffffffffffffffffffffffffffff16815260200190815260200160002081908060018154018082558091505090600182039060005260206000200160009091929091909150908051906020019061082592919061082b565b50505050565b828054600181600116156101000203166002900490600052602060002090601f016020900481019282601f1061086c57805160ff191683800117855561089a565b8280016001018555821561089a579182015b8281111561089957825182559160200191906001019061087e565b5b5090506108a791906108ab565b5090565b6108cd91905b808211156108c95760008160009055506001016108b1565b5090565b90565b60006108dc8235610c91565b905092915050565b600082601f83011215156108f757600080fd5b813561090a61090582610c00565b610bd3565b9150808252602083016020830185838301111561092657600080fd5b610931838284610ca3565b50505092915050565b60006020828403121561094c57600080fd5b600061095a848285016108d0565b91505092915050565b60006020828403121561097557600080fd5b600082013567ffffffffffffffff81111561098f57600080fd5b61099b848285016108e4565b91505092915050565b600080604083850312156109b757600080fd5b600083013567ffffffffffffffff8111156109d157600080fd5b6109dd858286016108e4565b92505060206109ee858286016108d0565b9150509250929050565b60008060008060808587031215610a0e57600080fd5b600085013567ffffffffffffffff811115610a2857600080fd5b610a34878288016108e4565b945050602085013567ffffffffffffffff811115610a5157600080fd5b610a5d878288016108e4565b9350506040610a6e878288016108d0565b9250506060610a7f878288016108d0565b91505092959194509250565b6000610a9682610c39565b80845260208401935083602082028501610aaf85610c2c565b60005b84811015610ae8578383038852610aca838351610b2f565b9250610ad582610c5a565b9150602088019750600181019050610ab2565b508196508694505050505092915050565b6000610b0482610c4f565b808452610b18816020860160208601610cb2565b610b2181610ce5565b602085010191505092915050565b6000610b3a82610c44565b808452610b4e816020860160208601610cb2565b610b5781610ce5565b602085010191505092915050565b610b6e81610c87565b82525050565b60006020820190508181036000830152610b8e8184610a8b565b905092915050565b60006020820190508181036000830152610bb08184610af9565b905092915050565b6000602082019050610bcd6000830184610b65565b92915050565b6000604051905081810181811067ffffffffffffffff82111715610bf657600080fd5b8060405250919050565b600067ffffffffffffffff821115610c1757600080fd5b601f19601f8301169050602081019050919050565b6000602082019050919050565b600081519050919050565b600081519050919050565b600081519050919050565b6000602082019050919050565b600073ffffffffffffffffffffffffffffffffffffffff82169050919050565b6000819050919050565b6000610c9c82610c67565b9050919050565b82818337600083830152505050565b60005b83811015610cd0578082015181840152602081019050610cb5565b83811115610cdf576000848401525b50505050565b6000601f19601f830116905091905056fea265627a7a72305820946c75dbead0337977a8a3869ddf17d164f3d40c209b16cd9ff08ba6292ba6186c6578706572696d656e74616cf50037",
  "source": "pragma solidity ^0.5.0;\npragma experimental ABIEncoderV2;\n\ncontract SimpleStorage {\n  struct Data{\n    address from;\n    address to;\n    string digitalSignature;\n  }\n  mapping(address => string) publicKey;\n  function checkPublicKey(address a) public view returns (uint) {\n\n    if(bytes(publicKey[a]).length ==0)\n    {\n      return 0;\n    }\n    else\n    {\n      return 1;\n    }\n  }\n  function getPublicKey(address a) public view returns (string memory){\n    return publicKey[a];\n  }\n  \n  //mapping (string => string) digitalSignature;\n  //function storeDigitalSignature(string memory link,string memory signature) public {\n  //  digitalSignature[link] = signature;\n  //}\n  function getDigitalSignature(string memory link) public view returns (string memory)\n  {\n     return data[link].digitalSignature;\n  }\n\n  mapping(address => string[]) addressLink;\n  function addAddressLink(address add,string memory link) private {\n        addressLink[add].push(link);\n  }\n  mapping(string=> Data) data;\n  function addData(string memory link,string memory digitalSignature,address to,address a) public\n  {\n    data[link].from=a;\n    data[link].to=to;\n    data[link].digitalSignature=digitalSignature;\n    addAddressLink(to,link);\n  }\n  function getLinks(address a) public view returns (string[] memory)\n  {\n    return addressLink[a];\n  }\n  function addPublicKey(string memory key,address a) public {\n    uint check = checkPublicKey(a);\n    if(check == 1)\n    {\n\n    }\n    else\n    {\n      publicKey[a] = key;\n    }\n  }\n  \n}\n",
  "sourcePath": "/Users/shivansh/Desktop/filepost-cert/contracts/SimpleStorage.sol",
  "compiler": {
    "name": "solc",
    "version": "0.5.0+commit.1d4f565a.Emscripten.clang"
  },
  "schemaVersion": "3.0.0-beta.2",
  "updatedAt": "2019-03-27T04:02:46.249Z",
  "devdoc": {
    "methods": {}
  },
  "userdoc": {
    "methods": {}
  }
}