{
  "contractName": "SimpleStorage",
  "abi": [
    {
      "constant": true,
      "inputs": [],
      "name": "checkPublicKey",
      "outputs": [
        {
          "name": "",
          "type": "bool"
        }
      ],
      "payable": false,
      "stateMutability": "view",
      "type": "function",
      "signature": "0x1f3ac958"
    },
    {
      "constant": false,
      "inputs": [],
      "name": "getPublicKey",
      "outputs": [],
      "payable": false,
      "stateMutability": "nonpayable",
      "type": "function",
      "signature": "0x2e334452"
    },
    {
      "constant": false,
      "inputs": [
        {
          "name": "link",
          "type": "string"
        },
        {
          "name": "signature",
          "type": "string"
        }
      ],
      "name": "storeDigitalSignature",
      "outputs": [],
      "payable": false,
      "stateMutability": "nonpayable",
      "type": "function",
      "signature": "0x26cceeac"
    },
    {
      "constant": true,
      "inputs": [
        {
          "name": "link",
          "type": "string"
        }
      ],
      "name": "getDigitalSignature",
      "outputs": [
        {
          "name": "",
          "type": "string"
        }
      ],
      "payable": false,
      "stateMutability": "view",
      "type": "function",
      "signature": "0x54e69f7f"
    },
    {
      "constant": false,
      "inputs": [
        {
          "name": "key",
          "type": "string"
        }
      ],
      "name": "addPublicKey",
      "outputs": [],
      "payable": false,
      "stateMutability": "nonpayable",
      "type": "function",
      "signature": "0xce09197e"
    },
    {
      "constant": true,
      "inputs": [],
      "name": "get",
      "outputs": [
        {
          "name": "",
          "type": "uint256"
        }
      ],
      "payable": false,
      "stateMutability": "view",
      "type": "function",
      "signature": "0x6d4ce63c"
    }
  ],
  "bytecode": "0x608060405234801561001057600080fd5b506107a8806100206000396000f3fe608060405260043610610078576000357c0100000000000000000000000000000000000000000000000000000000900463ffffffff1680631f3ac9581461007d57806326cceeac146100ac5780632e3344521461020b57806354e69f7f146102225780636d4ce63c14610363578063ce09197e1461038e575b600080fd5b34801561008957600080fd5b50610092610456565b604051808215151515815260200191505060405180910390f35b3480156100b857600080fd5b50610209600480360360408110156100cf57600080fd5b81019080803590602001906401000000008111156100ec57600080fd5b8201836020820111156100fe57600080fd5b8035906020019184600183028401116401000000008311171561012057600080fd5b91908080601f016020809104026020016040519081016040528093929190818152602001838380828437600081840152601f19601f8201169050808301925050505050505091929192908035906020019064010000000081111561018357600080fd5b82018360208201111561019557600080fd5b803590602001918460018302840111640100000000831117156101b757600080fd5b91908080601f016020809104026020016040519081016040528093929190818152602001838380828437600081840152601f19601f8201169050808301925050505050505091929192905050506104c4565b005b34801561021757600080fd5b50610220610548565b005b34801561022e57600080fd5b506102e86004803603602081101561024557600080fd5b810190808035906020019064010000000081111561026257600080fd5b82018360208201111561027457600080fd5b8035906020019184600183028401116401000000008311171561029657600080fd5b91908080601f016020809104026020016040519081016040528093929190818152602001838380828437600081840152601f19601f82011690508083019250505050505050919291929050505061054a565b6040518080602001828103825283818151815260200191508051906020019080838360005b8381101561032857808201518184015260208101905061030d565b50505050905090810190601f1680156103555780820380516001836020036101000a031916815260200191505b509250505060405180910390f35b34801561036f57600080fd5b50610378610657565b6040518082815260200191505060405180910390f35b34801561039a57600080fd5b50610454600480360360208110156103b157600080fd5b81019080803590602001906401000000008111156103ce57600080fd5b8201836020820111156103e057600080fd5b8035906020019184600183028401116401000000008311171561040257600080fd5b91908080601f016020809104026020016040519081016040528093929190818152602001838380828437600081840152601f19601f820116905080830192505050505050509192919290505050610660565b005b600080600160003373ffffffffffffffffffffffffffffffffffffffff1673ffffffffffffffffffffffffffffffffffffffff16815260200190815260200160002080546001816001161561010002031660029004905014156104bc57600090506104c1565b600190505b90565b806002836040518082805190602001908083835b6020831015156104fd57805182526020820191506020810190506020830392506104d8565b6001836020036101000a038019825116818451168082178552505050505050905001915050908152602001604051809103902090805190602001906105439291906106d7565b505050565b565b60606002826040518082805190602001908083835b602083101515610584578051825260208201915060208101905060208303925061055f565b6001836020036101000a03801982511681845116808217855250505050505090500191505090815260200160405180910390208054600181600116156101000203166002900480601f01602080910402602001604051908101604052809291908181526020018280546001816001161561010002031660029004801561064b5780601f106106205761010080835404028352916020019161064b565b820191906000526020600020905b81548152906001019060200180831161062e57829003601f168201915b50505050509050919050565b60008054905090565b600061066a610456565b905060011515811515141561067e576106d3565b81600160003373ffffffffffffffffffffffffffffffffffffffff1673ffffffffffffffffffffffffffffffffffffffff16815260200190815260200160002090805190602001906106d19291906106d7565b505b5050565b828054600181600116156101000203166002900490600052602060002090601f016020900481019282601f1061071857805160ff1916838001178555610746565b82800160010185558215610746579182015b8281111561074557825182559160200191906001019061072a565b5b5090506107539190610757565b5090565b61077991905b8082111561077557600081600090555060010161075d565b5090565b9056fea165627a7a723058200aac6f68c578849c95a2bbe8abe28d3d5e683a6447a8595e7e9b1a052f9141720029",
  "source": "pragma solidity ^0.5.0;\n\ncontract SimpleStorage {\n  uint storedData;\n  mapping(address => string) publicKey;\n  function checkPublicKey() public view returns (bool) {\n\n    if(bytes(publicKey[msg.sender]).length ==0)\n    {\n      return false;\n    }\n    else\n    {\n      return true;\n    }\n  }\n  function getPublicKey() public{\n\n  }\n  mapping (string => string) digitalSignature;\n  function storeDigitalSignature(string memory link,string memory signature) public {\n    digitalSignature[link] = signature;\n  }\n  function getDigitalSignature(string memory link) public view returns (string memory)\n  {\n    return digitalSignature[link];\n  }\n  function addPublicKey(string memory key) public {\n    bool check = checkPublicKey();\n    if(check == true)\n    {\n\n    }\n    else\n    {\n      publicKey[msg.sender] = key;\n    }\n  }\n  function get() public view returns (uint) {\n    return storedData;\n  }\n}\n",
  "sourcePath": "/Users/shivansh/Desktop/filepost-cert/contracts/SimpleStorage.sol",
  "compiler": {
    "name": "solc",
    "version": "0.5.0+commit.1d4f565a.Emscripten.clang"
  },
  "schemaVersion": "3.0.0-beta.2",
  "updatedAt": "2019-03-21T19:30:54.189Z",
  "devdoc": {
    "methods": {}
  },
  "userdoc": {
    "methods": {}
  }
}