{
  "contractName": "SimpleStorage",
  "abi": [
    {
      "constant": true,
      "inputs": [
        {
          "name": "a",
          "type": "address"
        }
      ],
      "name": "checkPublicKey",
      "outputs": [
        {
          "name": "",
          "type": "bool"
        }
      ],
      "payable": false,
      "stateMutability": "view",
      "type": "function",
      "signature": "0x6af92956"
    },
    {
      "constant": true,
      "inputs": [
        {
          "name": "a",
          "type": "address"
        }
      ],
      "name": "getPublicKey",
      "outputs": [
        {
          "name": "",
          "type": "string"
        }
      ],
      "payable": false,
      "stateMutability": "view",
      "type": "function",
      "signature": "0x857cdbb8"
    },
    {
      "constant": true,
      "inputs": [
        {
          "name": "link",
          "type": "string"
        }
      ],
      "name": "getDigitalSignature",
      "outputs": [
        {
          "name": "",
          "type": "string"
        }
      ],
      "payable": false,
      "stateMutability": "view",
      "type": "function",
      "signature": "0x54e69f7f"
    },
    {
      "constant": false,
      "inputs": [
        {
          "name": "link",
          "type": "string"
        },
        {
          "name": "digitalSignature",
          "type": "string"
        },
        {
          "name": "to",
          "type": "address"
        },
        {
          "name": "a",
          "type": "address"
        }
      ],
      "name": "addData",
      "outputs": [],
      "payable": false,
      "stateMutability": "nonpayable",
      "type": "function",
      "signature": "0xb2b6e54b"
    },
    {
      "constant": true,
      "inputs": [
        {
          "name": "a",
          "type": "address"
        }
      ],
      "name": "getLinks",
      "outputs": [
        {
          "name": "arr",
          "type": "string[]"
        }
      ],
      "payable": false,
      "stateMutability": "view",
      "type": "function",
      "signature": "0x4b9d8624"
    },
    {
      "constant": false,
      "inputs": [
        {
          "name": "key",
          "type": "string"
        },
        {
          "name": "a",
          "type": "address"
        }
      ],
      "name": "addPublicKey",
      "outputs": [],
      "payable": false,
      "stateMutability": "nonpayable",
      "type": "function",
      "signature": "0xce68f121"
    }
  ],
  "bytecode": "0x608060405234801561001057600080fd5b50610c5f806100206000396000f3fe608060405234801561001057600080fd5b506004361061007f576000357c0100000000000000000000000000000000000000000000000000000000900480634b9d86241461008457806354e69f7f146100b45780636af92956146100e4578063857cdbb814610114578063b2b6e54b14610144578063ce68f12114610160575b600080fd5b61009e600480360361009991908101906107c4565b61017c565b6040516100ab9190610a63565b60405180910390f35b6100ce60048036036100c991908101906107ed565b6102a7565b6040516100db9190610aa0565b60405180910390f35b6100fe60048036036100f991908101906107c4565b61036a565b60405161010b9190610a85565b60405180910390f35b61012e600480360361012991908101906107c4565b6103d9565b60405161013b9190610aa0565b60405180910390f35b61015e60048036036101599190810190610882565b6104b9565b005b61017a6004803603610175919081019061082e565b6105bf565b005b6060600160008373ffffffffffffffffffffffffffffffffffffffff1673ffffffffffffffffffffffffffffffffffffffff168152602001908152602001600020805480602002602001604051908101604052809291908181526020016000905b82821015610299578382906000526020600020018054600181600116156101000203166002900480601f0160208091040260200160405190810160405280929190818152602001828054600181600116156101000203166002900480156102855780601f1061025a57610100808354040283529160200191610285565b820191906000526020600020905b81548152906001019060200180831161026857829003601f168201915b5050505050815260200190600101906101dd565b505050509050809050919050565b60606002826040516102b99190610a4c565b90815260200160405180910390206002018054600181600116156101000203166002900480601f01602080910402602001604051908101604052809291908181526020018280546001816001161561010002031660029004801561035e5780601f106103335761010080835404028352916020019161035e565b820191906000526020600020905b81548152906001019060200180831161034157829003601f168201915b50505050509050919050565b6000806000808473ffffffffffffffffffffffffffffffffffffffff1673ffffffffffffffffffffffffffffffffffffffff16815260200190815260200160002080546001816001161561010002031660029004905014156103cf57600090506103d4565b600190505b919050565b60606000808373ffffffffffffffffffffffffffffffffffffffff1673ffffffffffffffffffffffffffffffffffffffff1681526020019081526020016000208054600181600116156101000203166002900480601f0160208091040260200160405190810160405280929190818152602001828054600181600116156101000203166002900480156104ad5780601f10610482576101008083540402835291602001916104ad565b820191906000526020600020905b81548152906001019060200180831161049057829003601f168201915b50505050509050919050565b806002856040516104ca9190610a4c565b908152602001604051809103902060000160006101000a81548173ffffffffffffffffffffffffffffffffffffffff021916908373ffffffffffffffffffffffffffffffffffffffff1602179055508160028560405161052a9190610a4c565b908152602001604051809103902060010160006101000a81548173ffffffffffffffffffffffffffffffffffffffff021916908373ffffffffffffffffffffffffffffffffffffffff1602179055508260028560405161058a9190610a4c565b908152602001604051809103902060020190805190602001906105ae9291906106b7565b506105b98285610637565b50505050565b60006105ca8261036a565b90506001151581151514156105de57610632565b826000808473ffffffffffffffffffffffffffffffffffffffff1673ffffffffffffffffffffffffffffffffffffffff16815260200190815260200160002090805190602001906106309291906106b7565b505b505050565b600160008373ffffffffffffffffffffffffffffffffffffffff1673ffffffffffffffffffffffffffffffffffffffff1681526020019081526020016000208190806001815401808255809150509060018203906000526020600020016000909192909190915090805190602001906106b19291906106b7565b50505050565b828054600181600116156101000203166002900490600052602060002090601f016020900481019282601f106106f857805160ff1916838001178555610726565b82800160010185558215610726579182015b8281111561072557825182559160200191906001019061070a565b5b5090506107339190610737565b5090565b61075991905b8082111561075557600081600090555060010161073d565b5090565b90565b60006107688235610ba0565b905092915050565b600082601f83011261078157600080fd5b813561079461078f82610aef565b610ac2565b915080825260208301602083018583830111156107b057600080fd5b6107bb838284610bd2565b50505092915050565b6000602082840312156107d657600080fd5b60006107e48482850161075c565b91505092915050565b6000602082840312156107ff57600080fd5b600082013567ffffffffffffffff81111561081957600080fd5b61082584828501610770565b91505092915050565b6000806040838503121561084157600080fd5b600083013567ffffffffffffffff81111561085b57600080fd5b61086785828601610770565b92505060206108788582860161075c565b9150509250929050565b6000806000806080858703121561089857600080fd5b600085013567ffffffffffffffff8111156108b257600080fd5b6108be87828801610770565b945050602085013567ffffffffffffffff8111156108db57600080fd5b6108e787828801610770565b93505060406108f88782880161075c565b92505060606109098782880161075c565b91505092959194509250565b60006109218383610a13565b905092915050565b600061093482610b28565b61093e8185610b56565b93508360208202850161095085610b1b565b60005b8481101561098957838303885261096b838351610915565b925061097682610b49565b9150602088019750600181019050610953565b508196508694505050505092915050565b6109a381610b94565b82525050565b60006109b482610b3e565b6109be8185610b78565b93506109ce818560208601610be1565b6109d781610c14565b840191505092915050565b60006109ed82610b3e565b6109f78185610b89565b9350610a07818560208601610be1565b80840191505092915050565b6000610a1e82610b33565b610a288185610b67565b9350610a38818560208601610be1565b610a4181610c14565b840191505092915050565b6000610a5882846109e2565b915081905092915050565b60006020820190508181036000830152610a7d8184610929565b905092915050565b6000602082019050610a9a600083018461099a565b92915050565b60006020820190508181036000830152610aba81846109a9565b905092915050565b6000604051905081810181811067ffffffffffffffff82111715610ae557600080fd5b8060405250919050565b600067ffffffffffffffff821115610b0657600080fd5b601f19601f8301169050602081019050919050565b6000602082019050919050565b600081519050919050565b600081519050919050565b600081519050919050565b6000602082019050919050565b600082825260208201905092915050565b600082825260208201905092915050565b600082825260208201905092915050565b600081905092915050565b60008115159050919050565b6000610bab82610bb2565b9050919050565b600073ffffffffffffffffffffffffffffffffffffffff82169050919050565b82818337600083830152505050565b60005b83811015610bff578082015181840152602081019050610be4565b83811115610c0e576000848401525b50505050565b6000601f19601f830116905091905056fea265627a7a7230582091ada02863263f9fa775ccb79d95bfd749a4375cfc321d7a9db7ae08cec09ffd6c6578706572696d656e74616cf50037",
  "source": "pragma solidity ^0.5.6;\npragma experimental ABIEncoderV2;\n\ncontract SimpleStorage {\n  struct Data{\n    address from;\n    address to;\n    string digitalSignature;\n  }\n  mapping(address => string) publicKey;\n  function checkPublicKey(address a) public view returns (bool) {\n\n    if(bytes(publicKey[a]).length ==0)\n    {\n      return false;\n    }\n    else\n    {\n      return true;\n    }\n  }\n  function getPublicKey(address a) public view returns (string memory){\n    return publicKey[a];\n  }\n  \n  //mapping (string => string) digitalSignature;\n  //function storeDigitalSignature(string memory link,string memory signature) public {\n  //  digitalSignature[link] = signature;\n  //}\n  function getDigitalSignature(string memory link) public view returns (string memory)\n  {\n     return data[link].digitalSignature;\n  }\n\n  mapping(address => string[]) addressLink;\n  function addAddressLink(address add,string memory link) private {\n        addressLink[add].push(link);\n  }\n  mapping(string=> Data) data;\n  function addData(string memory link,string memory digitalSignature,address to,address a) public\n  {\n    data[link].from=a;\n    data[link].to=to;\n    data[link].digitalSignature=digitalSignature;\n    addAddressLink(to,link);\n  }\n  function getLinks(address a) public view returns (string[] memory arr)\n  {\n    arr = addressLink[a];\n    return arr;\n  }\n  function addPublicKey(string memory key,address a) public {\n    bool check = checkPublicKey(a);\n    if(check == true)\n    {\n\n    }\n    else\n    {\n      publicKey[a] = key;\n    }\n  }\n  \n}\n",
  "sourcePath": "/Users/shivansh/Desktop/filepost-cert/contracts/SimpleStorage.sol",
  "compiler": {
    "name": "solc",
    "version": "0.5.7+commit.6da8b019.Emscripten.clang"
  },
  "schemaVersion": "3.0.0-beta.2",
  "updatedAt": "2019-03-31T17:44:31.978Z",
  "devdoc": {
    "methods": {}
  },
  "userdoc": {
    "methods": {}
  }
}