{
  "contractName": "SimpleStorage",
  "abi": [
    {
      "constant": true,
      "inputs": [],
      "name": "checkPublicKey",
      "outputs": [
        {
          "name": "",
          "type": "bool"
        }
      ],
      "payable": false,
      "stateMutability": "view",
      "type": "function",
      "signature": "0x1f3ac958"
    },
    {
      "constant": true,
      "inputs": [
        {
          "name": "link",
          "type": "string"
        }
      ],
      "name": "getDigitalSignature",
      "outputs": [
        {
          "name": "",
          "type": "string"
        }
      ],
      "payable": false,
      "stateMutability": "view",
      "type": "function",
      "signature": "0x54e69f7f"
    },
    {
      "constant": false,
      "inputs": [
        {
          "name": "link",
          "type": "string"
        },
        {
          "name": "digitalSignature",
          "type": "string"
        },
        {
          "name": "to",
          "type": "address"
        }
      ],
      "name": "addData",
      "outputs": [],
      "payable": false,
      "stateMutability": "nonpayable",
      "type": "function",
      "signature": "0x0c8d9efd"
    },
    {
      "constant": true,
      "inputs": [],
      "name": "getLinks",
      "outputs": [
        {
          "name": "",
          "type": "string[]"
        }
      ],
      "payable": false,
      "stateMutability": "view",
      "type": "function",
      "signature": "0xf66ddcbb"
    },
    {
      "constant": false,
      "inputs": [
        {
          "name": "key",
          "type": "string"
        }
      ],
      "name": "addPublicKey",
      "outputs": [],
      "payable": false,
      "stateMutability": "nonpayable",
      "type": "function",
      "signature": "0xce09197e"
    }
  ],
  "bytecode": "0x608060405234801561001057600080fd5b50610b52806100206000396000f3fe60806040526004361061006d576000357c0100000000000000000000000000000000000000000000000000000000900463ffffffff1680630c8d9efd146100725780631f3ac9581461009b57806354e69f7f146100c6578063ce09197e14610103578063f66ddcbb1461012c575b600080fd5b34801561007e57600080fd5b506100996004803603610094919081019061082c565b610157565b005b3480156100a757600080fd5b506100b0610343565b6040516100bd91906109b6565b60405180910390f35b3480156100d257600080fd5b506100ed60048036036100e891908101906107eb565b6103b0565b6040516100fa91906109d1565b60405180910390f35b34801561010f57600080fd5b5061012a600480360361012591908101906107eb565b6104c0565b005b34801561013857600080fd5b50610141610536565b60405161014e9190610994565b60405180910390f35b336002846040518082805190602001908083835b602083101515610190578051825260208201915060208101905060208303925061016b565b6001836020036101000a038019825116818451168082178552505050505050905001915050908152602001604051809103902060000160006101000a81548173ffffffffffffffffffffffffffffffffffffffff021916908373ffffffffffffffffffffffffffffffffffffffff160217905550806002846040518082805190602001908083835b60208310151561023d5780518252602082019150602081019050602083039250610218565b6001836020036101000a038019825116818451168082178552505050505050905001915050908152602001604051809103902060010160006101000a81548173ffffffffffffffffffffffffffffffffffffffff021916908373ffffffffffffffffffffffffffffffffffffffff160217905550816002846040518082805190602001908083835b6020831015156102ea57805182526020820191506020810190506020830392506102c5565b6001836020036101000a038019825116818451168082178552505050505050905001915050908152602001604051809103902060020190805190602001906103339291906106dc565b5061033e818461065c565b505050565b6000806000803373ffffffffffffffffffffffffffffffffffffffff1673ffffffffffffffffffffffffffffffffffffffff16815260200190815260200160002080546001816001161561010002031660029004905014156103a857600090506103ad565b600190505b90565b60606002826040518082805190602001908083835b6020831015156103ea57805182526020820191506020810190506020830392506103c5565b6001836020036101000a03801982511681845116808217855250505050505090500191505090815260200160405180910390206002018054600181600116156101000203166002900480601f0160208091040260200160405190810160405280929190818152602001828054600181600116156101000203166002900480156104b45780601f10610489576101008083540402835291602001916104b4565b820191906000526020600020905b81548152906001019060200180831161049757829003601f168201915b50505050509050919050565b60006104ca610343565b90506001151581151514156104de57610532565b816000803373ffffffffffffffffffffffffffffffffffffffff1673ffffffffffffffffffffffffffffffffffffffff16815260200190815260200160002090805190602001906105309291906106dc565b505b5050565b6060600160003373ffffffffffffffffffffffffffffffffffffffff1673ffffffffffffffffffffffffffffffffffffffff168152602001908152602001600020805480602002602001604051908101604052809291908181526020016000905b82821015610653578382906000526020600020018054600181600116156101000203166002900480601f01602080910402602001604051908101604052809291908181526020018280546001816001161561010002031660029004801561063f5780601f106106145761010080835404028352916020019161063f565b820191906000526020600020905b81548152906001019060200180831161062257829003601f168201915b505050505081526020019060010190610597565b50505050905090565b600160008373ffffffffffffffffffffffffffffffffffffffff1673ffffffffffffffffffffffffffffffffffffffff1681526020019081526020016000208190806001815401808255809150509060018203906000526020600020016000909192909190915090805190602001906106d69291906106dc565b50505050565b828054600181600116156101000203166002900490600052602060002090601f016020900481019282601f1061071d57805160ff191683800117855561074b565b8280016001018555821561074b579182015b8281111561074a57825182559160200191906001019061072f565b5b509050610758919061075c565b5090565b61077e91905b8082111561077a576000816000905550600101610762565b5090565b90565b600061078d8235610ab3565b905092915050565b600082601f83011215156107a857600080fd5b81356107bb6107b682610a20565b6109f3565b915080825260208301602083018583830111156107d757600080fd5b6107e2838284610ac5565b50505092915050565b6000602082840312156107fd57600080fd5b600082013567ffffffffffffffff81111561081757600080fd5b61082384828501610795565b91505092915050565b60008060006060848603121561084157600080fd5b600084013567ffffffffffffffff81111561085b57600080fd5b61086786828701610795565b935050602084013567ffffffffffffffff81111561088457600080fd5b61089086828701610795565b92505060406108a186828701610781565b9150509250925092565b60006108b682610a59565b808452602084019350836020820285016108cf85610a4c565b60005b848110156109085783830388526108ea83835161095e565b92506108f582610a7a565b91506020880197506001810190506108d2565b508196508694505050505092915050565b61092281610a87565b82525050565b600061093382610a6f565b808452610947816020860160208601610ad4565b61095081610b07565b602085010191505092915050565b600061096982610a64565b80845261097d816020860160208601610ad4565b61098681610b07565b602085010191505092915050565b600060208201905081810360008301526109ae81846108ab565b905092915050565b60006020820190506109cb6000830184610919565b92915050565b600060208201905081810360008301526109eb8184610928565b905092915050565b6000604051905081810181811067ffffffffffffffff82111715610a1657600080fd5b8060405250919050565b600067ffffffffffffffff821115610a3757600080fd5b601f19601f8301169050602081019050919050565b6000602082019050919050565b600081519050919050565b600081519050919050565b600081519050919050565b6000602082019050919050565b60008115159050919050565b600073ffffffffffffffffffffffffffffffffffffffff82169050919050565b6000610abe82610a93565b9050919050565b82818337600083830152505050565b60005b83811015610af2578082015181840152602081019050610ad7565b83811115610b01576000848401525b50505050565b6000601f19601f830116905091905056fea265627a7a72305820fa55c1d4ca1d03d1d1d4de642076746dcf515ed02388073189311b812718c3696c6578706572696d656e74616cf50037",
  "source": "pragma solidity ^0.5.0;\npragma experimental ABIEncoderV2;\n\ncontract SimpleStorage {\n  struct Data{\n    address from;\n    address to;\n    string digitalSignature;\n  }\n  mapping(address => string) publicKey;\n  function checkPublicKey() public view returns (bool) {\n\n    if(bytes(publicKey[msg.sender]).length ==0)\n    {\n      return false;\n    }\n    else\n    {\n      return true;\n    }\n  }\n  \n  //mapping (string => string) digitalSignature;\n  //function storeDigitalSignature(string memory link,string memory signature) public {\n  //  digitalSignature[link] = signature;\n  //}\n  function getDigitalSignature(string memory link) public view returns (string memory)\n  {\n     return data[link].digitalSignature;\n  }\n\n  mapping(address => string[]) addressLink;\n  function addAddressLink(address add,string memory link) private {\n        addressLink[add].push(link);\n  }\n  mapping(string=> Data) data;\n  function addData(string memory link,string memory digitalSignature,address to) public\n  {\n    data[link].from=msg.sender;\n    data[link].to=to;\n    data[link].digitalSignature=digitalSignature;\n    addAddressLink(to,link);\n  }\n  function getLinks() public view returns (string[] memory)\n  {\n    return addressLink[msg.sender];\n  }\n  function addPublicKey(string memory key) public {\n    bool check = checkPublicKey();\n    if(check == true)\n    {\n\n    }\n    else\n    {\n      publicKey[msg.sender] = key;\n    }\n  }\n  \n}\n",
  "sourcePath": "/Users/shivansh/Desktop/filepost-cert/contracts/SimpleStorage.sol",
  "compiler": {
    "name": "solc",
    "version": "0.5.0+commit.1d4f565a.Emscripten.clang"
  },
  "schemaVersion": "3.0.0-beta.2",
  "updatedAt": "2019-03-23T18:31:26.007Z",
  "devdoc": {
    "methods": {}
  },
  "userdoc": {
    "methods": {}
  }
}