{
  "contractName": "SimpleStorage",
  "abi": [
    {
      "constant": true,
      "inputs": [
        {
          "name": "",
          "type": "uint256"
        }
      ],
      "name": "addressarr",
      "outputs": [
        {
          "name": "",
          "type": "address"
        }
      ],
      "payable": false,
      "stateMutability": "view",
      "type": "function"
    },
    {
      "constant": true,
      "inputs": [
        {
          "name": "",
          "type": "uint256"
        }
      ],
      "name": "namearr",
      "outputs": [
        {
          "name": "",
          "type": "string"
        }
      ],
      "payable": false,
      "stateMutability": "view",
      "type": "function"
    },
    {
      "constant": true,
      "inputs": [
        {
          "name": "a",
          "type": "address"
        }
      ],
      "name": "checkPublicKey",
      "outputs": [
        {
          "name": "",
          "type": "bool"
        }
      ],
      "payable": false,
      "stateMutability": "view",
      "type": "function"
    },
    {
      "constant": true,
      "inputs": [
        {
          "name": "a",
          "type": "address"
        }
      ],
      "name": "getPublicKey",
      "outputs": [
        {
          "name": "",
          "type": "string"
        }
      ],
      "payable": false,
      "stateMutability": "view",
      "type": "function"
    },
    {
      "constant": true,
      "inputs": [
        {
          "name": "link",
          "type": "string"
        }
      ],
      "name": "getDigitalSignature",
      "outputs": [
        {
          "name": "",
          "type": "string"
        },
        {
          "name": "",
          "type": "address"
        }
      ],
      "payable": false,
      "stateMutability": "view",
      "type": "function"
    },
    {
      "constant": false,
      "inputs": [
        {
          "name": "link",
          "type": "string"
        },
        {
          "name": "digitalSignature",
          "type": "string"
        },
        {
          "name": "to",
          "type": "address"
        },
        {
          "name": "a",
          "type": "address"
        }
      ],
      "name": "addData",
      "outputs": [],
      "payable": false,
      "stateMutability": "nonpayable",
      "type": "function"
    },
    {
      "constant": true,
      "inputs": [
        {
          "name": "a",
          "type": "address"
        }
      ],
      "name": "getLinks",
      "outputs": [
        {
          "name": "arr",
          "type": "string[]"
        }
      ],
      "payable": false,
      "stateMutability": "view",
      "type": "function"
    },
    {
      "constant": false,
      "inputs": [
        {
          "name": "key",
          "type": "string"
        },
        {
          "name": "a",
          "type": "address"
        },
        {
          "name": "name",
          "type": "string"
        }
      ],
      "name": "addPublicKey",
      "outputs": [],
      "payable": false,
      "stateMutability": "nonpayable",
      "type": "function"
    },
    {
      "constant": true,
      "inputs": [
        {
          "name": "add",
          "type": "address"
        }
      ],
      "name": "getName",
      "outputs": [
        {
          "name": "name",
          "type": "string"
        }
      ],
      "payable": false,
      "stateMutability": "view",
      "type": "function"
    },
    {
      "constant": true,
      "inputs": [],
      "name": "getAllUsersName",
      "outputs": [
        {
          "name": "",
          "type": "string[]"
        }
      ],
      "payable": false,
      "stateMutability": "view",
      "type": "function"
    },
    {
      "constant": true,
      "inputs": [],
      "name": "getAllUsersAdd",
      "outputs": [
        {
          "name": "",
          "type": "address[]"
        }
      ],
      "payable": false,
      "stateMutability": "view",
      "type": "function"
    },
    {
      "constant": true,
      "inputs": [
        {
          "name": "a",
          "type": "address"
        }
      ],
      "name": "getSenderName",
      "outputs": [
        {
          "name": "",
          "type": "string"
        }
      ],
      "payable": false,
      "stateMutability": "view",
      "type": "function"
    }
  ],
  "bytecode": "0x608060405234801561001057600080fd5b50611668806100206000396000f3fe608060405234801561001057600080fd5b50600436106100d1576000357c01000000000000000000000000000000000000000000000000000000009004806382f4c2281161008e57806382f4c228146101f7578063857cdbb8146102275780639a38c3ad14610257578063b2b6e54b14610273578063e8f3837b1461028f578063ec1a1e9b146102ad576100d1565b806301eefc4e146100d6578063242b2b65146101065780634b9d86241461013657806354e69f7f146101665780635fd4b08a146101975780636af92956146101c7575b600080fd5b6100f060048036036100eb91908101906110bc565b6102cb565b6040516100fd919061132e565b60405180910390f35b610120600480360361011b9190810190610f40565b610309565b60405161012d91906113ca565b60405180910390f35b610150600480360361014b9190810190610f40565b61047a565b60405161015d919061136b565b60405180910390f35b610180600480360361017b9190810190610f69565b6105a5565b60405161018e9291906113ec565b60405180910390f35b6101b160048036036101ac9190810190610f40565b6106b1565b6040516101be91906113ca565b60405180910390f35b6101e160048036036101dc9190810190610f40565b610795565b6040516101ee919061138d565b60405180910390f35b610211600480360361020c91908101906110bc565b610808565b60405161021e91906113a8565b60405180910390f35b610241600480360361023c9190810190610f40565b6108c3565b60405161024e91906113ca565b60405180910390f35b610271600480360361026c9190810190610faa565b6109a7565b005b61028d60048036036102889190810190611029565b610b20565b005b610297610c26565b6040516102a4919061136b565b60405180910390f35b6102b5610d0f565b6040516102c29190611349565b60405180910390f35b6001818154811015156102da57fe5b906000526020600020016000915054906101000a900473ffffffffffffffffffffffffffffffffffffffff1681565b606060008090505b600180549050811115156104735760018181548110151561032e57fe5b9060005260206000200160009054906101000a900473ffffffffffffffffffffffffffffffffffffffff1660405160200161036991906112fc565b604051602081830303815290604052805190602001208360405160200161039091906112fc565b604051602081830303815290604052805190602001201415610466576000818154811015156103bb57fe5b906000526020600020018054600181600116156101000203166002900480601f0160208091040260200160405190810160405280929190818152602001828054600181600116156101000203166002900480156104595780601f1061042e57610100808354040283529160200191610459565b820191906000526020600020905b81548152906001019060200180831161043c57829003601f168201915b5050505050915050610475565b8080600101915050610311565b505b919050565b6060600360008373ffffffffffffffffffffffffffffffffffffffff1673ffffffffffffffffffffffffffffffffffffffff168152602001908152602001600020805480602002602001604051908101604052809291908181526020016000905b82821015610597578382906000526020600020018054600181600116156101000203166002900480601f0160208091040260200160405190810160405280929190818152602001828054600181600116156101000203166002900480156105835780601f1061055857610100808354040283529160200191610583565b820191906000526020600020905b81548152906001019060200180831161056657829003601f168201915b5050505050815260200190600101906104db565b505050509050809050919050565b606060006004836040516105b99190611317565b90815260200160405180910390206002016004846040516105da9190611317565b908152602001604051809103902060000160009054906101000a900473ffffffffffffffffffffffffffffffffffffffff16818054600181600116156101000203166002900480601f0160208091040260200160405190810160405280929190818152602001828054600181600116156101000203166002900480156106a15780601f10610676576101008083540402835291602001916106a1565b820191906000526020600020905b81548152906001019060200180831161068457829003601f168201915b5050505050915091509150915091565b6060600260008373ffffffffffffffffffffffffffffffffffffffff1673ffffffffffffffffffffffffffffffffffffffff1681526020019081526020016000206001018054600181600116156101000203166002900480601f0160208091040260200160405190810160405280929190818152602001828054600181600116156101000203166002900480156107895780601f1061075e57610100808354040283529160200191610789565b820191906000526020600020905b81548152906001019060200180831161076c57829003601f168201915b50505050509050919050565b600080600260008473ffffffffffffffffffffffffffffffffffffffff1673ffffffffffffffffffffffffffffffffffffffff16815260200190815260200160002060000180546001816001161561010002031660029004905014156107fe5760009050610803565b600190505b919050565b60008181548110151561081757fe5b906000526020600020016000915090508054600181600116156101000203166002900480601f0160208091040260200160405190810160405280929190818152602001828054600181600116156101000203166002900480156108bb5780601f10610890576101008083540402835291602001916108bb565b820191906000526020600020905b81548152906001019060200180831161089e57829003601f168201915b505050505081565b6060600260008373ffffffffffffffffffffffffffffffffffffffff1673ffffffffffffffffffffffffffffffffffffffff1681526020019081526020016000206000018054600181600116156101000203166002900480601f01602080910402602001604051908101604052809291908181526020018280546001816001161561010002031660029004801561099b5780601f106109705761010080835404028352916020019161099b565b820191906000526020600020905b81548152906001019060200180831161097e57829003601f168201915b50505050509050919050565b60006109b283610795565b90506001151581151514156109c657610b1a565b83600260008573ffffffffffffffffffffffffffffffffffffffff1673ffffffffffffffffffffffffffffffffffffffff1681526020019081526020016000206000019080519060200190610a1c929190610e1d565b5081600260008573ffffffffffffffffffffffffffffffffffffffff1673ffffffffffffffffffffffffffffffffffffffff1681526020019081526020016000206001019080519060200190610a73929190610e1d565b506000829080600181540180825580915050906001820390600052602060002001600090919290919091509080519060200190610ab1929190610e1d565b505060018390806001815401808255809150509060018203906000526020600020016000909192909190916101000a81548173ffffffffffffffffffffffffffffffffffffffff021916908373ffffffffffffffffffffffffffffffffffffffff160217905550505b50505050565b80600485604051610b319190611317565b908152602001604051809103902060000160006101000a81548173ffffffffffffffffffffffffffffffffffffffff021916908373ffffffffffffffffffffffffffffffffffffffff16021790555081600485604051610b919190611317565b908152602001604051809103902060010160006101000a81548173ffffffffffffffffffffffffffffffffffffffff021916908373ffffffffffffffffffffffffffffffffffffffff16021790555082600485604051610bf19190611317565b90815260200160405180910390206002019080519060200190610c15929190610e1d565b50610c208285610d9d565b50505050565b60606000805480602002602001604051908101604052809291908181526020016000905b82821015610d06578382906000526020600020018054600181600116156101000203166002900480601f016020809104026020016040519081016040528092919081815260200182805460018160011615610100020316600290048015610cf25780601f10610cc757610100808354040283529160200191610cf2565b820191906000526020600020905b815481529060010190602001808311610cd557829003601f168201915b505050505081526020019060010190610c4a565b50505050905090565b60606001805480602002602001604051908101604052809291908181526020018280548015610d9357602002820191906000526020600020905b8160009054906101000a900473ffffffffffffffffffffffffffffffffffffffff1673ffffffffffffffffffffffffffffffffffffffff1681526020019060010190808311610d49575b5050505050905090565b600360008373ffffffffffffffffffffffffffffffffffffffff1673ffffffffffffffffffffffffffffffffffffffff168152602001908152602001600020819080600181540180825580915050906001820390600052602060002001600090919290919091509080519060200190610e17929190610e1d565b50505050565b828054600181600116156101000203166002900490600052602060002090601f016020900481019282601f10610e5e57805160ff1916838001178555610e8c565b82800160010185558215610e8c579182015b82811115610e8b578251825591602001919060010190610e70565b5b509050610e999190610e9d565b5090565b610ebf91905b80821115610ebb576000816000905550600101610ea3565b5090565b90565b6000610ece8235611562565b905092915050565b600082601f8301121515610ee957600080fd5b8135610efc610ef782611449565b61141c565b91508082526020830160208301858383011115610f1857600080fd5b610f2383828461159e565b50505092915050565b6000610f388235611594565b905092915050565b600060208284031215610f5257600080fd5b6000610f6084828501610ec2565b91505092915050565b600060208284031215610f7b57600080fd5b600082013567ffffffffffffffff811115610f9557600080fd5b610fa184828501610ed6565b91505092915050565b600080600060608486031215610fbf57600080fd5b600084013567ffffffffffffffff811115610fd957600080fd5b610fe586828701610ed6565b9350506020610ff686828701610ec2565b925050604084013567ffffffffffffffff81111561101357600080fd5b61101f86828701610ed6565b9150509250925092565b6000806000806080858703121561103f57600080fd5b600085013567ffffffffffffffff81111561105957600080fd5b61106587828801610ed6565b945050602085013567ffffffffffffffff81111561108257600080fd5b61108e87828801610ed6565b935050604061109f87828801610ec2565b92505060606110b087828801610ec2565b91505092959194509250565b6000602082840312156110ce57600080fd5b60006110dc84828501610f2c565b91505092915050565b60006110f18383611111565b60208301905092915050565b6000611109838361128a565b905092915050565b61111a81611524565b82525050565b61112981611524565b82525050565b61114061113b82611524565b6115e0565b82525050565b60006111518261148f565b61115b81856114d5565b935061116683611475565b60005b828110156111945761117c8683516110e5565b9550611187826114bb565b9150600181019050611169565b50849250505092915050565b60006111ab8261149a565b6111b581856114e6565b9350836020820285016111c785611482565b60005b848110156112005783830388526111e28383516110fd565b92506111ed826114c8565b91506020880197506001810190506111ca565b508196508694505050505092915050565b61121a81611536565b82525050565b600061122b826114b0565b6112358185611508565b93506112458185602086016115ad565b61124e81611604565b840191505092915050565b6000611264826114b0565b61126e8185611519565b935061127e8185602086016115ad565b80840191505092915050565b6000611295826114a5565b61129f81856114f7565b93506112af8185602086016115ad565b6112b881611604565b840191505092915050565b60006112ce826114a5565b6112d88185611508565b93506112e88185602086016115ad565b6112f181611604565b840191505092915050565b6000611308828461112f565b60148201915081905092915050565b60006113238284611259565b915081905092915050565b60006020820190506113436000830184611120565b92915050565b600060208201905081810360008301526113638184611146565b905092915050565b6000602082019050818103600083015261138581846111a0565b905092915050565b60006020820190506113a26000830184611211565b92915050565b600060208201905081810360008301526113c281846112c3565b905092915050565b600060208201905081810360008301526113e48184611220565b905092915050565b600060408201905081810360008301526114068185611220565b90506114156020830184611120565b9392505050565b6000604051905081810181811067ffffffffffffffff8211171561143f57600080fd5b8060405250919050565b600067ffffffffffffffff82111561146057600080fd5b601f19601f8301169050602081019050919050565b6000602082019050919050565b6000602082019050919050565b600081519050919050565b600081519050919050565b600081519050919050565b600081519050919050565b6000602082019050919050565b6000602082019050919050565b600082825260208201905092915050565b600082825260208201905092915050565b600082825260208201905092915050565b600082825260208201905092915050565b600081905092915050565b600061152f82611542565b9050919050565b60008115159050919050565b600073ffffffffffffffffffffffffffffffffffffffff82169050919050565b600061156d82611574565b9050919050565b600073ffffffffffffffffffffffffffffffffffffffff82169050919050565b6000819050919050565b82818337600083830152505050565b60005b838110156115cb5780820151818401526020810190506115b0565b838111156115da576000848401525b50505050565b60006115eb826115f2565b9050919050565b60006115fd82611615565b9050919050565b6000601f19601f8301169050919050565b60006c010000000000000000000000008202905091905056fea265627a7a72305820ece34932a74e50ef68e28e8f0d6d8ca66344c5eb7a36e580c840c6ae8a5ed58b6c6578706572696d656e74616cf50037",
  "source": "pragma solidity ^0.5.4;\r\npragma experimental ABIEncoderV2;\r\n\r\ncontract SimpleStorage {\r\n  struct Data{\r\n    address from;\r\n    address to;\r\n    string digitalSignature;\r\n  }\r\n  struct identity{\r\n    string pubkey;\r\n    string name;\r\n  }\r\n  string[] public namearr;\r\n\r\n  address[] public addressarr;\r\n  mapping(address => identity) publicKey;\r\n  function checkPublicKey(address a) public view returns (bool) {\r\n\r\n    if(bytes(publicKey[a].pubkey).length == 0)\r\n    {\r\n      return false;\r\n    }\r\n    else\r\n    {\r\n      return true;\r\n    }\r\n  }\r\n  function getPublicKey(address a) public view returns (string memory){\r\n    return publicKey[a].pubkey;\r\n  }\r\n \r\n  function getDigitalSignature(string memory link) public view returns (string memory,address)\r\n  {\r\n     return (data[link].digitalSignature,data[link].from);\r\n  }\r\n\r\n  mapping(address => string[]) addressLink;\r\n  function addAddressLink(address add,string memory link) private {\r\n        addressLink[add].push(link);\r\n  }\r\n  mapping(string=> Data) data;\r\n  function addData(string memory link,string memory digitalSignature,address to,address a) public\r\n  {\r\n    data[link].from = a;\r\n    data[link].to = to;\r\n    data[link].digitalSignature = digitalSignature;\r\n    addAddressLink(to,link);\r\n  }\r\n  function getLinks(address a) public view returns (string[] memory arr)\r\n  {\r\n    arr = addressLink[a];\r\n    return arr;\r\n  }\r\n  function addPublicKey(string memory key,address a,string memory name) public {\r\n    bool check = checkPublicKey(a);\r\n    if(check == true)\r\n    {\r\n\r\n    }\r\n    else\r\n    {\r\n      publicKey[a].pubkey = key;\r\n      publicKey[a].name = name;\r\n      namearr.push(name);\r\n      addressarr.push(a);\r\n\r\n    }\r\n  }\r\n  function getName(address add) public view returns(string memory name){\r\n    return publicKey[add].name;\r\n  }\r\n  function getAllUsersName() public view returns(string[] memory)\r\n  {\r\n    return namearr;\r\n\r\n  }\r\n  function getAllUsersAdd() public view returns(address[] memory)\r\n  {\r\n    return addressarr;\r\n  }\r\n  function getSenderName(address a) public view returns(string memory){\r\n    for(uint i=0;i<=addressarr.length;i++)\r\n    {\r\n     if (keccak256(abi.encodePacked((a))) == keccak256(abi.encodePacked((addressarr[i]))) )\r\n        {\r\n          return namearr[i];\r\n        }\r\n    }\r\n  }\r\n  \r\n  \r\n}\r\n",
  "sourcePath": "E:/github/filepost-cert/contracts/SimpleStorage.sol",
  "compiler": {
    "name": "solc",
    "version": "0.5.4+commit.9549d8ff.Emscripten.clang"
  },
  "schemaVersion": "3.0.9",
  "updatedAt": "2019-05-29T15:37:16.680Z",
  "devdoc": {
    "methods": {}
  },
  "userdoc": {
    "methods": {}
  }
}