{
  "contractName": "SimpleStorage",
  "abi": [
    {
      "constant": true,
      "inputs": [
        {
          "name": "",
          "type": "uint256"
        }
      ],
      "name": "addressarr",
      "outputs": [
        {
          "name": "",
          "type": "string"
        }
      ],
      "payable": false,
      "stateMutability": "view",
      "type": "function",
      "signature": "0x01eefc4e"
    },
    {
      "constant": true,
      "inputs": [
        {
          "name": "",
          "type": "uint256"
        }
      ],
      "name": "namearr",
      "outputs": [
        {
          "name": "",
          "type": "string"
        }
      ],
      "payable": false,
      "stateMutability": "view",
      "type": "function",
      "signature": "0x82f4c228"
    },
    {
      "constant": true,
      "inputs": [
        {
          "name": "a",
          "type": "string"
        }
      ],
      "name": "checkPublicKey",
      "outputs": [
        {
          "name": "",
          "type": "bool"
        }
      ],
      "payable": false,
      "stateMutability": "view",
      "type": "function",
      "signature": "0xb7f4750a"
    },
    {
      "constant": true,
      "inputs": [
        {
          "name": "a",
          "type": "string"
        }
      ],
      "name": "getPublicKey",
      "outputs": [
        {
          "name": "",
          "type": "string"
        }
      ],
      "payable": false,
      "stateMutability": "view",
      "type": "function",
      "signature": "0xbff90821"
    },
    {
      "constant": true,
      "inputs": [
        {
          "name": "link",
          "type": "string"
        }
      ],
      "name": "getDigitalSignature",
      "outputs": [
        {
          "name": "",
          "type": "string"
        },
        {
          "name": "",
          "type": "address"
        }
      ],
      "payable": false,
      "stateMutability": "view",
      "type": "function",
      "signature": "0x54e69f7f"
    },
    {
      "constant": false,
      "inputs": [
        {
          "name": "link",
          "type": "string"
        },
        {
          "name": "digitalSignature",
          "type": "string"
        },
        {
          "name": "to",
          "type": "address"
        },
        {
          "name": "a",
          "type": "address"
        }
      ],
      "name": "addData",
      "outputs": [],
      "payable": false,
      "stateMutability": "nonpayable",
      "type": "function",
      "signature": "0xb2b6e54b"
    },
    {
      "constant": true,
      "inputs": [
        {
          "name": "a",
          "type": "address"
        }
      ],
      "name": "getLinks",
      "outputs": [
        {
          "name": "arr",
          "type": "string[]"
        }
      ],
      "payable": false,
      "stateMutability": "view",
      "type": "function",
      "signature": "0x4b9d8624"
    },
    {
      "constant": false,
      "inputs": [
        {
          "name": "key",
          "type": "string"
        },
        {
          "name": "a",
          "type": "string"
        },
        {
          "name": "name",
          "type": "string"
        }
      ],
      "name": "addPublicKey",
      "outputs": [],
      "payable": false,
      "stateMutability": "nonpayable",
      "type": "function",
      "signature": "0x08c409f7"
    },
    {
      "constant": true,
      "inputs": [
        {
          "name": "add",
          "type": "string"
        }
      ],
      "name": "getName",
      "outputs": [
        {
          "name": "name",
          "type": "string"
        }
      ],
      "payable": false,
      "stateMutability": "view",
      "type": "function",
      "signature": "0x6932cf81"
    },
    {
      "constant": true,
      "inputs": [],
      "name": "getAllUsersName",
      "outputs": [
        {
          "name": "",
          "type": "string[]"
        }
      ],
      "payable": false,
      "stateMutability": "view",
      "type": "function",
      "signature": "0xe8f3837b"
    },
    {
      "constant": true,
      "inputs": [],
      "name": "getAllUsersAdd",
      "outputs": [
        {
          "name": "",
          "type": "string[]"
        }
      ],
      "payable": false,
      "stateMutability": "view",
      "type": "function",
      "signature": "0xec1a1e9b"
    }
  ],
  "bytecode": "0x608060405234801561001057600080fd5b50611377806100206000396000f3fe608060405234801561001057600080fd5b50600436106100c6576000357c01000000000000000000000000000000000000000000000000000000009004806382f4c2281161008e57806382f4c228146101a8578063b2b6e54b146101d8578063b7f4750a146101f4578063bff9082114610224578063e8f3837b14610254578063ec1a1e9b14610272576100c6565b806301eefc4e146100cb57806308c409f7146100fb5780634b9d86241461011757806354e69f7f146101475780636932cf8114610178575b600080fd5b6100e560048036036100e09190810190610f2e565b610290565b6040516100f2919061112a565b60405180910390f35b61011560048036036101109190810190610e97565b610349565b005b610131600480360361012c9190810190610d9a565b610459565b60405161013e91906110ed565b60405180910390f35b610161600480360361015c9190810190610dc3565b610584565b60405161016f92919061116e565b60405180910390f35b610192600480360361018d9190810190610dc3565b610690565b60405161019f919061114c565b60405180910390f35b6101c260048036036101bd9190810190610f2e565b610753565b6040516101cf919061112a565b60405180910390f35b6101f260048036036101ed9190810190610e04565b61080c565b005b61020e60048036036102099190810190610dc3565b610912565b60405161021b919061110f565b60405180910390f35b61023e60048036036102399190810190610dc3565b610964565b60405161024b919061114c565b60405180910390f35b61025c610a27565b60405161026991906110ed565b60405180910390f35b61027a610b10565b60405161028791906110ed565b60405180910390f35b6001818154811061029d57fe5b906000526020600020016000915090508054600181600116156101000203166002900480601f0160208091040260200160405190810160405280929190818152602001828054600181600116156101000203166002900480156103415780601f1061031657610100808354040283529160200191610341565b820191906000526020600020905b81548152906001019060200180831161032457829003601f168201915b505050505081565b600061035483610912565b905060011515811515141561036857610453565b8360028460405161037991906110d6565b9081526020016040518091039020600001908051906020019061039d929190610c79565b50816002846040516103af91906110d6565b908152602001604051809103902060010190805190602001906103d3929190610c79565b506000829080600181540180825580915050906001820390600052602060002001600090919290919091509080519060200190610411929190610c79565b50506001839080600181540180825580915050906001820390600052602060002001600090919290919091509080519060200190610450929190610c79565b50505b50505050565b6060600360008373ffffffffffffffffffffffffffffffffffffffff1673ffffffffffffffffffffffffffffffffffffffff168152602001908152602001600020805480602002602001604051908101604052809291908181526020016000905b82821015610576578382906000526020600020018054600181600116156101000203166002900480601f0160208091040260200160405190810160405280929190818152602001828054600181600116156101000203166002900480156105625780601f1061053757610100808354040283529160200191610562565b820191906000526020600020905b81548152906001019060200180831161054557829003601f168201915b5050505050815260200190600101906104ba565b505050509050809050919050565b6060600060048360405161059891906110d6565b90815260200160405180910390206002016004846040516105b991906110d6565b908152602001604051809103902060000160009054906101000a900473ffffffffffffffffffffffffffffffffffffffff16818054600181600116156101000203166002900480601f0160208091040260200160405190810160405280929190818152602001828054600181600116156101000203166002900480156106805780601f1061065557610100808354040283529160200191610680565b820191906000526020600020905b81548152906001019060200180831161066357829003601f168201915b5050505050915091509150915091565b60606002826040516106a291906110d6565b90815260200160405180910390206001018054600181600116156101000203166002900480601f0160208091040260200160405190810160405280929190818152602001828054600181600116156101000203166002900480156107475780601f1061071c57610100808354040283529160200191610747565b820191906000526020600020905b81548152906001019060200180831161072a57829003601f168201915b50505050509050919050565b6000818154811061076057fe5b906000526020600020016000915090508054600181600116156101000203166002900480601f0160208091040260200160405190810160405280929190818152602001828054600181600116156101000203166002900480156108045780601f106107d957610100808354040283529160200191610804565b820191906000526020600020905b8154815290600101906020018083116107e757829003601f168201915b505050505081565b8060048560405161081d91906110d6565b908152602001604051809103902060000160006101000a81548173ffffffffffffffffffffffffffffffffffffffff021916908373ffffffffffffffffffffffffffffffffffffffff1602179055508160048560405161087d91906110d6565b908152602001604051809103902060010160006101000a81548173ffffffffffffffffffffffffffffffffffffffff021916908373ffffffffffffffffffffffffffffffffffffffff160217905550826004856040516108dd91906110d6565b90815260200160405180910390206002019080519060200190610901929190610c79565b5061090c8285610bf9565b50505050565b60008060028360405161092591906110d6565b9081526020016040518091039020600001805460018160011615610100020316600290049050141561095a576000905061095f565b600190505b919050565b606060028260405161097691906110d6565b90815260200160405180910390206000018054600181600116156101000203166002900480601f016020809104026020016040519081016040528092919081815260200182805460018160011615610100020316600290048015610a1b5780601f106109f057610100808354040283529160200191610a1b565b820191906000526020600020905b8154815290600101906020018083116109fe57829003601f168201915b50505050509050919050565b60606000805480602002602001604051908101604052809291908181526020016000905b82821015610b07578382906000526020600020018054600181600116156101000203166002900480601f016020809104026020016040519081016040528092919081815260200182805460018160011615610100020316600290048015610af35780601f10610ac857610100808354040283529160200191610af3565b820191906000526020600020905b815481529060010190602001808311610ad657829003601f168201915b505050505081526020019060010190610a4b565b50505050905090565b60606001805480602002602001604051908101604052809291908181526020016000905b82821015610bf0578382906000526020600020018054600181600116156101000203166002900480601f016020809104026020016040519081016040528092919081815260200182805460018160011615610100020316600290048015610bdc5780601f10610bb157610100808354040283529160200191610bdc565b820191906000526020600020905b815481529060010190602001808311610bbf57829003601f168201915b505050505081526020019060010190610b34565b50505050905090565b600360008373ffffffffffffffffffffffffffffffffffffffff1673ffffffffffffffffffffffffffffffffffffffff168152602001908152602001600020819080600181540180825580915050906001820390600052602060002001600090919290919091509080519060200190610c73929190610c79565b50505050565b828054600181600116156101000203166002900490600052602060002090601f016020900481019282601f10610cba57805160ff1916838001178555610ce8565b82800160010185558215610ce8579182015b82811115610ce7578251825591602001919060010190610ccc565b5b509050610cf59190610cf9565b5090565b610d1b91905b80821115610d17576000816000905550600101610cff565b5090565b90565b6000610d2a82356112ae565b905092915050565b600082601f830112610d4357600080fd5b8135610d56610d51826111cb565b61119e565b91508082526020830160208301858383011115610d7257600080fd5b610d7d8382846112ea565b50505092915050565b6000610d9282356112e0565b905092915050565b600060208284031215610dac57600080fd5b6000610dba84828501610d1e565b91505092915050565b600060208284031215610dd557600080fd5b600082013567ffffffffffffffff811115610def57600080fd5b610dfb84828501610d32565b91505092915050565b60008060008060808587031215610e1a57600080fd5b600085013567ffffffffffffffff811115610e3457600080fd5b610e4087828801610d32565b945050602085013567ffffffffffffffff811115610e5d57600080fd5b610e6987828801610d32565b9350506040610e7a87828801610d1e565b9250506060610e8b87828801610d1e565b91505092959194509250565b600080600060608486031215610eac57600080fd5b600084013567ffffffffffffffff811115610ec657600080fd5b610ed286828701610d32565b935050602084013567ffffffffffffffff811115610eef57600080fd5b610efb86828701610d32565b925050604084013567ffffffffffffffff811115610f1857600080fd5b610f2486828701610d32565b9150509250925092565b600060208284031215610f4057600080fd5b6000610f4e84828501610d86565b91505092915050565b6000610f638383611064565b905092915050565b610f7481611270565b82525050565b6000610f8582611204565b610f8f8185611232565b935083602082028501610fa1856111f7565b60005b84811015610fda578383038852610fbc838351610f57565b9250610fc782611225565b9150602088019750600181019050610fa4565b508196508694505050505092915050565b610ff481611282565b82525050565b60006110058261121a565b61100f8185611254565b935061101f8185602086016112f9565b6110288161132c565b840191505092915050565b600061103e8261121a565b6110488185611265565b93506110588185602086016112f9565b80840191505092915050565b600061106f8261120f565b6110798185611243565b93506110898185602086016112f9565b6110928161132c565b840191505092915050565b60006110a88261120f565b6110b28185611254565b93506110c28185602086016112f9565b6110cb8161132c565b840191505092915050565b60006110e28284611033565b915081905092915050565b600060208201905081810360008301526111078184610f7a565b905092915050565b60006020820190506111246000830184610feb565b92915050565b60006020820190508181036000830152611144818461109d565b905092915050565b600060208201905081810360008301526111668184610ffa565b905092915050565b600060408201905081810360008301526111888185610ffa565b90506111976020830184610f6b565b9392505050565b6000604051905081810181811067ffffffffffffffff821117156111c157600080fd5b8060405250919050565b600067ffffffffffffffff8211156111e257600080fd5b601f19601f8301169050602081019050919050565b6000602082019050919050565b600081519050919050565b600081519050919050565b600081519050919050565b6000602082019050919050565b600082825260208201905092915050565b600082825260208201905092915050565b600082825260208201905092915050565b600081905092915050565b600061127b8261128e565b9050919050565b60008115159050919050565b600073ffffffffffffffffffffffffffffffffffffffff82169050919050565b60006112b9826112c0565b9050919050565b600073ffffffffffffffffffffffffffffffffffffffff82169050919050565b6000819050919050565b82818337600083830152505050565b60005b838110156113175780820151818401526020810190506112fc565b83811115611326576000848401525b50505050565b6000601f19601f830116905091905056fea265627a7a7230582018c6f8dbacc57e96306b9514b68a9a7a7246539588b8817a2826d963e548fb526c6578706572696d656e74616cf50037",
  "source": "pragma solidity ^0.5.4;\npragma experimental ABIEncoderV2;\n\ncontract SimpleStorage {\n  struct Data{\n    address from;\n    address to;\n    string digitalSignature;\n  }\n  struct identity{\n    string pubkey;\n    string name;\n  }\n  string[] public namearr;\n\n  string[] public addressarr;\n  mapping(string => identity) publicKey;\n  function checkPublicKey(string memory a) public view returns (bool) {\n\n    if(bytes(publicKey[a].pubkey).length == 0)\n    {\n      return false;\n    }\n    else\n    {\n      return true;\n    }\n  }\n  function getPublicKey(string memory a) public view returns (string memory){\n    \n    return publicKey[a].pubkey;\n  }\n \n  function getDigitalSignature(string memory link) public view returns (string memory,address)\n  {\n     return (data[link].digitalSignature,data[link].from);\n  }\n\n  mapping(address => string[]) addressLink;\n  function addAddressLink(address add,string memory link) private {\n        addressLink[add].push(link);\n  }\n  mapping(string=> Data) data;\n  function addData(string memory link,string memory digitalSignature,address to,address a) public\n  {\n    data[link].from = a;\n    data[link].to = to;\n    data[link].digitalSignature = digitalSignature;\n    addAddressLink(to,link);\n  }\n  function getLinks(address a) public view returns (string[] memory arr)\n  {\n    arr = addressLink[a];\n    return arr;\n  }\n  function addPublicKey(string memory key,string memory a,string memory name) public {\n    bool check = checkPublicKey(a);\n    if(check == true)\n    {\n\n    }\n    else\n    {\n      publicKey[a].pubkey = key;\n      publicKey[a].name = name;\n      namearr.push(name);\n      addressarr.push(a);\n\n    }\n  }\n  function getName(string memory add) public view returns(string memory name){\n    return publicKey[add].name;\n  }\n  function getAllUsersName() public view returns(string[] memory)\n  {\n    return namearr;\n\n  }\n  function getAllUsersAdd() public view returns(string[] memory)\n  {\n    return addressarr;\n  }\n  \n  \n  \n}\n",
  "sourcePath": "/Users/shivansh/Desktop/filepost-cert/contracts/SimpleStorage.sol",
  "compiler": {
    "name": "solc",
    "version": "0.5.7+commit.6da8b019.Emscripten.clang"
  },
  "schemaVersion": "3.0.0-beta.2",
  "updatedAt": "2019-05-29T18:20:16.220Z",
  "devdoc": {
    "methods": {}
  },
  "userdoc": {
    "methods": {}
  }
}