{
  "contractName": "SimpleStorage",
  "abi": [
    {
      "constant": true,
      "inputs": [
        {
          "name": "",
          "type": "uint256"
        }
      ],
      "name": "addressarr",
      "outputs": [
        {
          "name": "",
          "type": "address"
        }
      ],
      "payable": false,
      "stateMutability": "view",
      "type": "function",
      "signature": "0x01eefc4e"
    },
    {
      "constant": true,
      "inputs": [
        {
          "name": "",
          "type": "uint256"
        }
      ],
      "name": "namearr",
      "outputs": [
        {
          "name": "",
          "type": "string"
        }
      ],
      "payable": false,
      "stateMutability": "view",
      "type": "function",
      "signature": "0x82f4c228"
    },
    {
      "constant": true,
      "inputs": [
        {
          "name": "a",
          "type": "address"
        }
      ],
      "name": "checkPublicKey",
      "outputs": [
        {
          "name": "",
          "type": "bool"
        }
      ],
      "payable": false,
      "stateMutability": "view",
      "type": "function",
      "signature": "0x6af92956"
    },
    {
      "constant": true,
      "inputs": [
        {
          "name": "a",
          "type": "address"
        }
      ],
      "name": "getPublicKey",
      "outputs": [
        {
          "name": "",
          "type": "string"
        }
      ],
      "payable": false,
      "stateMutability": "view",
      "type": "function",
      "signature": "0x857cdbb8"
    },
    {
      "constant": true,
      "inputs": [
        {
          "name": "link",
          "type": "string"
        }
      ],
      "name": "getDigitalSignature",
      "outputs": [
        {
          "name": "",
          "type": "string"
        },
        {
          "name": "",
          "type": "address"
        }
      ],
      "payable": false,
      "stateMutability": "view",
      "type": "function",
      "signature": "0x54e69f7f"
    },
    {
      "constant": false,
      "inputs": [
        {
          "name": "link",
          "type": "string"
        },
        {
          "name": "digitalSignature",
          "type": "string"
        },
        {
          "name": "to",
          "type": "address"
        },
        {
          "name": "a",
          "type": "address"
        }
      ],
      "name": "addData",
      "outputs": [],
      "payable": false,
      "stateMutability": "nonpayable",
      "type": "function",
      "signature": "0xb2b6e54b"
    },
    {
      "constant": true,
      "inputs": [
        {
          "name": "a",
          "type": "address"
        }
      ],
      "name": "getLinks",
      "outputs": [
        {
          "name": "arr",
          "type": "string[]"
        }
      ],
      "payable": false,
      "stateMutability": "view",
      "type": "function",
      "signature": "0x4b9d8624"
    },
    {
      "constant": false,
      "inputs": [
        {
          "name": "key",
          "type": "string"
        },
        {
          "name": "a",
          "type": "address"
        },
        {
          "name": "name",
          "type": "string"
        }
      ],
      "name": "addPublicKey",
      "outputs": [],
      "payable": false,
      "stateMutability": "nonpayable",
      "type": "function",
      "signature": "0x9a38c3ad"
    },
    {
      "constant": true,
      "inputs": [
        {
          "name": "add",
          "type": "address"
        }
      ],
      "name": "getName",
      "outputs": [
        {
          "name": "name",
          "type": "string"
        }
      ],
      "payable": false,
      "stateMutability": "view",
      "type": "function",
      "signature": "0x5fd4b08a"
    },
    {
      "constant": true,
      "inputs": [],
      "name": "getAllUsersName",
      "outputs": [
        {
          "name": "",
          "type": "string[]"
        }
      ],
      "payable": false,
      "stateMutability": "view",
      "type": "function",
      "signature": "0xe8f3837b"
    },
    {
      "constant": true,
      "inputs": [],
      "name": "getAllUsersAdd",
      "outputs": [
        {
          "name": "",
          "type": "address[]"
        }
      ],
      "payable": false,
      "stateMutability": "view",
      "type": "function",
      "signature": "0xec1a1e9b"
    },
    {
      "constant": true,
      "inputs": [
        {
          "name": "a",
          "type": "address"
        }
      ],
      "name": "getSenderName",
      "outputs": [
        {
          "name": "",
          "type": "string"
        }
      ],
      "payable": false,
      "stateMutability": "view",
      "type": "function",
      "signature": "0x242b2b65"
    }
  ],
  "bytecode": "0x608060405234801561001057600080fd5b5061165c806100206000396000f3fe608060405234801561001057600080fd5b50600436106100d1576000357c01000000000000000000000000000000000000000000000000000000009004806382f4c2281161008e57806382f4c228146101f7578063857cdbb8146102275780639a38c3ad14610257578063b2b6e54b14610273578063e8f3837b1461028f578063ec1a1e9b146102ad576100d1565b806301eefc4e146100d6578063242b2b65146101065780634b9d86241461013657806354e69f7f146101665780635fd4b08a146101975780636af92956146101c7575b600080fd5b6100f060048036036100eb91908101906110b0565b6102cb565b6040516100fd9190611322565b60405180910390f35b610120600480360361011b9190810190610f34565b610307565b60405161012d91906113be565b60405180910390f35b610150600480360361014b9190810190610f34565b610472565b60405161015d919061135f565b60405180910390f35b610180600480360361017b9190810190610f5d565b61059d565b60405161018e9291906113e0565b60405180910390f35b6101b160048036036101ac9190810190610f34565b6106a9565b6040516101be91906113be565b60405180910390f35b6101e160048036036101dc9190810190610f34565b61078d565b6040516101ee9190611381565b60405180910390f35b610211600480360361020c91908101906110b0565b610800565b60405161021e919061139c565b60405180910390f35b610241600480360361023c9190810190610f34565b6108b9565b60405161024e91906113be565b60405180910390f35b610271600480360361026c9190810190610f9e565b61099d565b005b61028d6004803603610288919081019061101d565b610b16565b005b610297610c1c565b6040516102a4919061135f565b60405180910390f35b6102b5610d05565b6040516102c2919061133d565b60405180910390f35b600181815481106102d857fe5b906000526020600020016000915054906101000a900473ffffffffffffffffffffffffffffffffffffffff1681565b606060008090505b600180549050811161046b576001818154811061032857fe5b9060005260206000200160009054906101000a900473ffffffffffffffffffffffffffffffffffffffff1660405160200161036391906112f0565b604051602081830303815290604052805190602001208360405160200161038a91906112f0565b60405160208183030381529060405280519060200120141561045e57600081815481106103b357fe5b906000526020600020018054600181600116156101000203166002900480601f0160208091040260200160405190810160405280929190818152602001828054600181600116156101000203166002900480156104515780601f1061042657610100808354040283529160200191610451565b820191906000526020600020905b81548152906001019060200180831161043457829003601f168201915b505050505091505061046d565b808060010191505061030f565b505b919050565b6060600360008373ffffffffffffffffffffffffffffffffffffffff1673ffffffffffffffffffffffffffffffffffffffff168152602001908152602001600020805480602002602001604051908101604052809291908181526020016000905b8282101561058f578382906000526020600020018054600181600116156101000203166002900480601f01602080910402602001604051908101604052809291908181526020018280546001816001161561010002031660029004801561057b5780601f106105505761010080835404028352916020019161057b565b820191906000526020600020905b81548152906001019060200180831161055e57829003601f168201915b5050505050815260200190600101906104d3565b505050509050809050919050565b606060006004836040516105b1919061130b565b90815260200160405180910390206002016004846040516105d2919061130b565b908152602001604051809103902060000160009054906101000a900473ffffffffffffffffffffffffffffffffffffffff16818054600181600116156101000203166002900480601f0160208091040260200160405190810160405280929190818152602001828054600181600116156101000203166002900480156106995780601f1061066e57610100808354040283529160200191610699565b820191906000526020600020905b81548152906001019060200180831161067c57829003601f168201915b5050505050915091509150915091565b6060600260008373ffffffffffffffffffffffffffffffffffffffff1673ffffffffffffffffffffffffffffffffffffffff1681526020019081526020016000206001018054600181600116156101000203166002900480601f0160208091040260200160405190810160405280929190818152602001828054600181600116156101000203166002900480156107815780601f1061075657610100808354040283529160200191610781565b820191906000526020600020905b81548152906001019060200180831161076457829003601f168201915b50505050509050919050565b600080600260008473ffffffffffffffffffffffffffffffffffffffff1673ffffffffffffffffffffffffffffffffffffffff16815260200190815260200160002060000180546001816001161561010002031660029004905014156107f657600090506107fb565b600190505b919050565b6000818154811061080d57fe5b906000526020600020016000915090508054600181600116156101000203166002900480601f0160208091040260200160405190810160405280929190818152602001828054600181600116156101000203166002900480156108b15780601f10610886576101008083540402835291602001916108b1565b820191906000526020600020905b81548152906001019060200180831161089457829003601f168201915b505050505081565b6060600260008373ffffffffffffffffffffffffffffffffffffffff1673ffffffffffffffffffffffffffffffffffffffff1681526020019081526020016000206000018054600181600116156101000203166002900480601f0160208091040260200160405190810160405280929190818152602001828054600181600116156101000203166002900480156109915780601f1061096657610100808354040283529160200191610991565b820191906000526020600020905b81548152906001019060200180831161097457829003601f168201915b50505050509050919050565b60006109a88361078d565b90506001151581151514156109bc57610b10565b83600260008573ffffffffffffffffffffffffffffffffffffffff1673ffffffffffffffffffffffffffffffffffffffff1681526020019081526020016000206000019080519060200190610a12929190610e13565b5081600260008573ffffffffffffffffffffffffffffffffffffffff1673ffffffffffffffffffffffffffffffffffffffff1681526020019081526020016000206001019080519060200190610a69929190610e13565b506000829080600181540180825580915050906001820390600052602060002001600090919290919091509080519060200190610aa7929190610e13565b505060018390806001815401808255809150509060018203906000526020600020016000909192909190916101000a81548173ffffffffffffffffffffffffffffffffffffffff021916908373ffffffffffffffffffffffffffffffffffffffff160217905550505b50505050565b80600485604051610b27919061130b565b908152602001604051809103902060000160006101000a81548173ffffffffffffffffffffffffffffffffffffffff021916908373ffffffffffffffffffffffffffffffffffffffff16021790555081600485604051610b87919061130b565b908152602001604051809103902060010160006101000a81548173ffffffffffffffffffffffffffffffffffffffff021916908373ffffffffffffffffffffffffffffffffffffffff16021790555082600485604051610be7919061130b565b90815260200160405180910390206002019080519060200190610c0b929190610e13565b50610c168285610d93565b50505050565b60606000805480602002602001604051908101604052809291908181526020016000905b82821015610cfc578382906000526020600020018054600181600116156101000203166002900480601f016020809104026020016040519081016040528092919081815260200182805460018160011615610100020316600290048015610ce85780601f10610cbd57610100808354040283529160200191610ce8565b820191906000526020600020905b815481529060010190602001808311610ccb57829003601f168201915b505050505081526020019060010190610c40565b50505050905090565b60606001805480602002602001604051908101604052809291908181526020018280548015610d8957602002820191906000526020600020905b8160009054906101000a900473ffffffffffffffffffffffffffffffffffffffff1673ffffffffffffffffffffffffffffffffffffffff1681526020019060010190808311610d3f575b5050505050905090565b600360008373ffffffffffffffffffffffffffffffffffffffff1673ffffffffffffffffffffffffffffffffffffffff168152602001908152602001600020819080600181540180825580915050906001820390600052602060002001600090919290919091509080519060200190610e0d929190610e13565b50505050565b828054600181600116156101000203166002900490600052602060002090601f016020900481019282601f10610e5457805160ff1916838001178555610e82565b82800160010185558215610e82579182015b82811115610e81578251825591602001919060010190610e66565b5b509050610e8f9190610e93565b5090565b610eb591905b80821115610eb1576000816000905550600101610e99565b5090565b90565b6000610ec48235611556565b905092915050565b600082601f830112610edd57600080fd5b8135610ef0610eeb8261143d565b611410565b91508082526020830160208301858383011115610f0c57600080fd5b610f17838284611592565b50505092915050565b6000610f2c8235611588565b905092915050565b600060208284031215610f4657600080fd5b6000610f5484828501610eb8565b91505092915050565b600060208284031215610f6f57600080fd5b600082013567ffffffffffffffff811115610f8957600080fd5b610f9584828501610ecc565b91505092915050565b600080600060608486031215610fb357600080fd5b600084013567ffffffffffffffff811115610fcd57600080fd5b610fd986828701610ecc565b9350506020610fea86828701610eb8565b925050604084013567ffffffffffffffff81111561100757600080fd5b61101386828701610ecc565b9150509250925092565b6000806000806080858703121561103357600080fd5b600085013567ffffffffffffffff81111561104d57600080fd5b61105987828801610ecc565b945050602085013567ffffffffffffffff81111561107657600080fd5b61108287828801610ecc565b935050604061109387828801610eb8565b92505060606110a487828801610eb8565b91505092959194509250565b6000602082840312156110c257600080fd5b60006110d084828501610f20565b91505092915050565b60006110e58383611105565b60208301905092915050565b60006110fd838361127e565b905092915050565b61110e81611518565b82525050565b61111d81611518565b82525050565b61113461112f82611518565b6115d4565b82525050565b600061114582611483565b61114f81856114c9565b935061115a83611469565b60005b82811015611188576111708683516110d9565b955061117b826114af565b915060018101905061115d565b50849250505092915050565b600061119f8261148e565b6111a981856114da565b9350836020820285016111bb85611476565b60005b848110156111f45783830388526111d68383516110f1565b92506111e1826114bc565b91506020880197506001810190506111be565b508196508694505050505092915050565b61120e8161152a565b82525050565b600061121f826114a4565b61122981856114fc565b93506112398185602086016115a1565b611242816115f8565b840191505092915050565b6000611258826114a4565b611262818561150d565b93506112728185602086016115a1565b80840191505092915050565b600061128982611499565b61129381856114eb565b93506112a38185602086016115a1565b6112ac816115f8565b840191505092915050565b60006112c282611499565b6112cc81856114fc565b93506112dc8185602086016115a1565b6112e5816115f8565b840191505092915050565b60006112fc8284611123565b60148201915081905092915050565b6000611317828461124d565b915081905092915050565b60006020820190506113376000830184611114565b92915050565b60006020820190508181036000830152611357818461113a565b905092915050565b600060208201905081810360008301526113798184611194565b905092915050565b60006020820190506113966000830184611205565b92915050565b600060208201905081810360008301526113b681846112b7565b905092915050565b600060208201905081810360008301526113d88184611214565b905092915050565b600060408201905081810360008301526113fa8185611214565b90506114096020830184611114565b9392505050565b6000604051905081810181811067ffffffffffffffff8211171561143357600080fd5b8060405250919050565b600067ffffffffffffffff82111561145457600080fd5b601f19601f8301169050602081019050919050565b6000602082019050919050565b6000602082019050919050565b600081519050919050565b600081519050919050565b600081519050919050565b600081519050919050565b6000602082019050919050565b6000602082019050919050565b600082825260208201905092915050565b600082825260208201905092915050565b600082825260208201905092915050565b600082825260208201905092915050565b600081905092915050565b600061152382611536565b9050919050565b60008115159050919050565b600073ffffffffffffffffffffffffffffffffffffffff82169050919050565b600061156182611568565b9050919050565b600073ffffffffffffffffffffffffffffffffffffffff82169050919050565b6000819050919050565b82818337600083830152505050565b60005b838110156115bf5780820151818401526020810190506115a4565b838111156115ce576000848401525b50505050565b60006115df826115e6565b9050919050565b60006115f182611609565b9050919050565b6000601f19601f8301169050919050565b60006c010000000000000000000000008202905091905056fea265627a7a72305820fa45d1cc4f1cc13650e97969143e4719af4752320fd240323c4a8833bce51c906c6578706572696d656e74616cf50037",
  "source": "pragma solidity ^0.5.4;\npragma experimental ABIEncoderV2;\n\ncontract SimpleStorage {\n  struct Data{\n    address from;\n    address to;\n    string digitalSignature;\n  }\n  struct identity{\n    string pubkey;\n    string name;\n  }\n  string[] public namearr;\n\n  address[] public addressarr;\n  mapping(address => identity) publicKey;\n  function checkPublicKey(address a) public view returns (bool) {\n\n    if(bytes(publicKey[a].pubkey).length == 0)\n    {\n      return false;\n    }\n    else\n    {\n      return true;\n    }\n  }\n  function getPublicKey(address a) public view returns (string memory){\n    return publicKey[a].pubkey;\n  }\n \n  function getDigitalSignature(string memory link) public view returns (string memory,address)\n  {\n     return (data[link].digitalSignature,data[link].from);\n  }\n\n  mapping(address => string[]) addressLink;\n  function addAddressLink(address add,string memory link) private {\n        addressLink[add].push(link);\n  }\n  mapping(string=> Data) data;\n  function addData(string memory link,string memory digitalSignature,address to,address a) public\n  {\n    data[link].from = a;\n    data[link].to = to;\n    data[link].digitalSignature = digitalSignature;\n    addAddressLink(to,link);\n  }\n  function getLinks(address a) public view returns (string[] memory arr)\n  {\n    arr = addressLink[a];\n    return arr;\n  }\n  function addPublicKey(string memory key,address a,string memory name) public {\n    bool check = checkPublicKey(a);\n    if(check == true)\n    {\n\n    }\n    else\n    {\n      publicKey[a].pubkey = key;\n      publicKey[a].name = name;\n      namearr.push(name);\n      addressarr.push(a);\n\n    }\n  }\n  function getName(address add) public view returns(string memory name){\n    return publicKey[add].name;\n  }\n  function getAllUsersName() public view returns(string[] memory)\n  {\n    return namearr;\n\n  }\n  function getAllUsersAdd() public view returns(address[] memory)\n  {\n    return addressarr;\n  }\n  function getSenderName(address a) public view returns(string memory){\n    for(uint i=0;i<=addressarr.length;i++)\n    {\n     if (keccak256(abi.encodePacked((a))) == keccak256(abi.encodePacked((addressarr[i]))) )\n        {\n          return namearr[i];\n        }\n    }\n  }\n  \n  \n}\n",
  "sourcePath": "/Users/shivansh/Desktop/filepost-cert/contracts/SimpleStorage.sol",
  "compiler": {
    "name": "solc",
    "version": "0.5.7+commit.6da8b019.Emscripten.clang"
  },
  "schemaVersion": "3.0.0-beta.2",
  "updatedAt": "2019-05-29T07:51:10.324Z",
  "devdoc": {
    "methods": {}
  },
  "userdoc": {
    "methods": {}
  }
}